{
  "address": "0x8b0e2E8152a6aA007C38fb15781F360250fa67b9",
  "abi": [
    {
      "inputs": [],
      "stateMutability": "nonpayable",
      "type": "constructor"
    },
    {
      "anonymous": false,
      "inputs": [
        {
          "indexed": true,
          "internalType": "address",
          "name": "owner",
          "type": "address"
        },
        {
          "indexed": true,
          "internalType": "address",
          "name": "approved",
          "type": "address"
        },
        {
          "indexed": true,
          "internalType": "uint256",
          "name": "tokenId",
          "type": "uint256"
        }
      ],
      "name": "Approval",
      "type": "event"
    },
    {
      "anonymous": false,
      "inputs": [
        {
          "indexed": true,
          "internalType": "address",
          "name": "owner",
          "type": "address"
        },
        {
          "indexed": true,
          "internalType": "address",
          "name": "operator",
          "type": "address"
        },
        {
          "indexed": false,
          "internalType": "bool",
          "name": "approved",
          "type": "bool"
        }
      ],
      "name": "ApprovalForAll",
      "type": "event"
    },
    {
      "anonymous": false,
      "inputs": [
        {
          "indexed": true,
          "internalType": "address",
          "name": "from",
          "type": "address"
        },
        {
          "indexed": true,
          "internalType": "address",
          "name": "to",
          "type": "address"
        },
        {
          "indexed": true,
          "internalType": "uint256",
          "name": "tokenId",
          "type": "uint256"
        }
      ],
      "name": "Transfer",
      "type": "event"
    },
    {
      "anonymous": false,
      "inputs": [
        {
          "indexed": true,
          "internalType": "address",
          "name": "owner",
          "type": "address"
        },
        {
          "indexed": false,
          "internalType": "uint256",
          "name": "level",
          "type": "uint256"
        },
        {
          "indexed": false,
          "internalType": "uint256",
          "name": "hunter",
          "type": "uint256"
        }
      ],
      "name": "leveled",
      "type": "event"
    },
    {
      "anonymous": false,
      "inputs": [
        {
          "indexed": true,
          "internalType": "address",
          "name": "owner",
          "type": "address"
        },
        {
          "indexed": false,
          "internalType": "uint256",
          "name": "name",
          "type": "uint256"
        },
        {
          "indexed": false,
          "internalType": "uint256",
          "name": "hunter",
          "type": "uint256"
        }
      ],
      "name": "named",
      "type": "event"
    },
    {
      "anonymous": false,
      "inputs": [
        {
          "indexed": true,
          "internalType": "address",
          "name": "owner",
          "type": "address"
        },
        {
          "indexed": false,
          "internalType": "uint256",
          "name": "hunter",
          "type": "uint256"
        }
      ],
      "name": "summoned",
      "type": "event"
    },
    {
      "inputs": [
        {
          "internalType": "address",
          "name": "to",
          "type": "address"
        },
        {
          "internalType": "uint256",
          "name": "tokenId",
          "type": "uint256"
        }
      ],
      "name": "approve",
      "outputs": [],
      "stateMutability": "nonpayable",
      "type": "function"
    },
    {
      "inputs": [
        {
          "internalType": "address",
          "name": "owner",
          "type": "address"
        }
      ],
      "name": "balanceOf",
      "outputs": [
        {
          "internalType": "uint256",
          "name": "",
          "type": "uint256"
        }
      ],
      "stateMutability": "view",
      "type": "function"
    },
    {
      "inputs": [
        {
          "internalType": "uint256",
          "name": "_hunter",
          "type": "uint256"
        },
        {
          "internalType": "string",
          "name": "_name",
          "type": "string"
        }
      ],
      "name": "change_name",
      "outputs": [],
      "stateMutability": "nonpayable",
      "type": "function"
    },
    {
      "inputs": [
        {
          "internalType": "uint256",
          "name": "tokenId",
          "type": "uint256"
        }
      ],
      "name": "getApproved",
      "outputs": [
        {
          "internalType": "address",
          "name": "",
          "type": "address"
        }
      ],
      "stateMutability": "view",
      "type": "function"
    },
    {
      "inputs": [
        {
          "internalType": "uint256",
          "name": "_hunter",
          "type": "uint256"
        }
      ],
      "name": "hunter_info",
      "outputs": [
        {
          "internalType": "string",
          "name": "_name",
          "type": "string"
        },
        {
          "internalType": "uint256",
          "name": "_xp",
          "type": "uint256"
        },
        {
          "internalType": "uint256",
          "name": "_level",
          "type": "uint256"
        }
      ],
      "stateMutability": "view",
      "type": "function"
    },
    {
      "inputs": [
        {
          "internalType": "address",
          "name": "owner",
          "type": "address"
        },
        {
          "internalType": "address",
          "name": "operator",
          "type": "address"
        }
      ],
      "name": "isApprovedForAll",
      "outputs": [
        {
          "internalType": "bool",
          "name": "",
          "type": "bool"
        }
      ],
      "stateMutability": "view",
      "type": "function"
    },
    {
      "inputs": [
        {
          "internalType": "uint256",
          "name": "",
          "type": "uint256"
        }
      ],
      "name": "level",
      "outputs": [
        {
          "internalType": "uint256",
          "name": "",
          "type": "uint256"
        }
      ],
      "stateMutability": "view",
      "type": "function"
    },
    {
      "inputs": [
        {
          "internalType": "uint256",
          "name": "_hunter",
          "type": "uint256"
        }
      ],
      "name": "level_up",
      "outputs": [],
      "stateMutability": "nonpayable",
      "type": "function"
    },
    {
      "inputs": [
        {
          "internalType": "address",
          "name": "",
          "type": "address"
        }
      ],
      "name": "minted_address",
      "outputs": [
        {
          "internalType": "bool",
          "name": "",
          "type": "bool"
        }
      ],
      "stateMutability": "view",
      "type": "function"
    },
    {
      "inputs": [
        {
          "internalType": "uint256",
          "name": "",
          "type": "uint256"
        }
      ],
      "name": "name",
      "outputs": [
        {
          "internalType": "string",
          "name": "",
          "type": "string"
        }
      ],
      "stateMutability": "view",
      "type": "function"
    },
    {
      "inputs": [],
      "name": "name",
      "outputs": [
        {
          "internalType": "string",
          "name": "",
          "type": "string"
        }
      ],
      "stateMutability": "view",
      "type": "function"
    },
    {
      "inputs": [
        {
          "internalType": "uint256",
          "name": "tokenId",
          "type": "uint256"
        }
      ],
      "name": "ownerOf",
      "outputs": [
        {
          "internalType": "address",
          "name": "",
          "type": "address"
        }
      ],
      "stateMutability": "view",
      "type": "function"
    },
    {
      "inputs": [
        {
          "internalType": "address",
          "name": "from",
          "type": "address"
        },
        {
          "internalType": "address",
          "name": "to",
          "type": "address"
        },
        {
          "internalType": "uint256",
          "name": "tokenId",
          "type": "uint256"
        }
      ],
      "name": "safeTransferFrom",
      "outputs": [],
      "stateMutability": "nonpayable",
      "type": "function"
    },
    {
      "inputs": [
        {
          "internalType": "address",
          "name": "from",
          "type": "address"
        },
        {
          "internalType": "address",
          "name": "to",
          "type": "address"
        },
        {
          "internalType": "uint256",
          "name": "tokenId",
          "type": "uint256"
        },
        {
          "internalType": "bytes",
          "name": "data",
          "type": "bytes"
        }
      ],
      "name": "safeTransferFrom",
      "outputs": [],
      "stateMutability": "nonpayable",
      "type": "function"
    },
    {
      "inputs": [
        {
          "internalType": "address",
          "name": "operator",
          "type": "address"
        },
        {
          "internalType": "bool",
          "name": "approved",
          "type": "bool"
        }
      ],
      "name": "setApprovalForAll",
      "outputs": [],
      "stateMutability": "nonpayable",
      "type": "function"
    },
    {
      "inputs": [
        {
          "internalType": "uint256",
          "name": "_hunter",
          "type": "uint256"
        },
        {
          "internalType": "uint256",
          "name": "_xp",
          "type": "uint256"
        }
      ],
      "name": "spend_xp",
      "outputs": [],
      "stateMutability": "nonpayable",
      "type": "function"
    },
    {
      "inputs": [],
      "name": "summon",
      "outputs": [],
      "stateMutability": "nonpayable",
      "type": "function"
    },
    {
      "inputs": [
        {
          "internalType": "bytes4",
          "name": "interfaceId",
          "type": "bytes4"
        }
      ],
      "name": "supportsInterface",
      "outputs": [
        {
          "internalType": "bool",
          "name": "",
          "type": "bool"
        }
      ],
      "stateMutability": "view",
      "type": "function"
    },
    {
      "inputs": [],
      "name": "symbol",
      "outputs": [
        {
          "internalType": "string",
          "name": "",
          "type": "string"
        }
      ],
      "stateMutability": "view",
      "type": "function"
    },
    {
      "inputs": [
        {
          "internalType": "uint256",
          "name": "tokenId",
          "type": "uint256"
        }
      ],
      "name": "tokenURI",
      "outputs": [
        {
          "internalType": "string",
          "name": "",
          "type": "string"
        }
      ],
      "stateMutability": "view",
      "type": "function"
    },
    {
      "inputs": [
        {
          "internalType": "address",
          "name": "from",
          "type": "address"
        },
        {
          "internalType": "address",
          "name": "to",
          "type": "address"
        },
        {
          "internalType": "uint256",
          "name": "tokenId",
          "type": "uint256"
        }
      ],
      "name": "transferFrom",
      "outputs": [],
      "stateMutability": "nonpayable",
      "type": "function"
    },
    {
      "inputs": [
        {
          "internalType": "uint256",
          "name": "",
          "type": "uint256"
        }
      ],
      "name": "xp",
      "outputs": [
        {
          "internalType": "uint256",
          "name": "",
          "type": "uint256"
        }
      ],
      "stateMutability": "view",
      "type": "function"
    },
    {
      "inputs": [
        {
          "internalType": "uint256",
          "name": "curent_level",
          "type": "uint256"
        }
      ],
      "name": "xp_required",
      "outputs": [
        {
          "internalType": "uint256",
          "name": "xp_to_next_level",
          "type": "uint256"
        }
      ],
      "stateMutability": "pure",
      "type": "function"
    }
  ],
  "transactionHash": "0xa95975838bf930c3d038f6317937d0a4a605cb27a033fc3a29999946f69bd076",
  "args": [],
  "numDeployments": 1,
  "solcInputHash": "47ca64a29061e1a273ea224c6e846450",
  "bytecode": "0x60806040523480156200001157600080fd5b506040518060400160405280600981526020017f43686172616374657200000000000000000000000000000000000000000000008152506040518060400160405280600681526020017f48554e544552000000000000000000000000000000000000000000000000000081525081600090816200008f919062000324565b508060019081620000a1919062000324565b5050506200040b565b600081519050919050565b7f4e487b7100000000000000000000000000000000000000000000000000000000600052604160045260246000fd5b7f4e487b7100000000000000000000000000000000000000000000000000000000600052602260045260246000fd5b600060028204905060018216806200012c57607f821691505b602082108103620001425762000141620000e4565b5b50919050565b60008190508160005260206000209050919050565b60006020601f8301049050919050565b600082821b905092915050565b600060088302620001ac7fffffffffffffffffffffffffffffffffffffffffffffffffffffffffffffffff826200016d565b620001b886836200016d565b95508019841693508086168417925050509392505050565b6000819050919050565b6000819050919050565b600062000205620001ff620001f984620001d0565b620001da565b620001d0565b9050919050565b6000819050919050565b6200022183620001e4565b6200023962000230826200020c565b8484546200017a565b825550505050565b600090565b6200025062000241565b6200025d81848462000216565b505050565b5b8181101562000285576200027960008262000246565b60018101905062000263565b5050565b601f821115620002d4576200029e8162000148565b620002a9846200015d565b81016020851015620002b9578190505b620002d1620002c8856200015d565b83018262000262565b50505b505050565b600082821c905092915050565b6000620002f960001984600802620002d9565b1980831691505092915050565b6000620003148383620002e6565b9150826002028217905092915050565b6200032f82620000aa565b67ffffffffffffffff8111156200034b576200034a620000b5565b5b62000357825462000113565b6200036482828562000289565b600060209050601f8311600181146200039c576000841562000387578287015190505b62000393858262000306565b86555062000403565b601f198416620003ac8662000148565b60005b82811015620003d657848901518255600182019150602085019450602081019050620003af565b86831015620003f65784890151620003f2601f891682620002e6565b8355505b6001600288020188555050505b505050505050565b613511806200041b6000396000f3fe608060405234801561001057600080fd5b506004361061014c5760003560e01c806370a08231116100c3578063adf448d81161007c578063adf448d8146103d5578063b88d4fde14610405578063c87b56dd14610421578063e51c4ecc14610451578063e58410bb1461046d578063e985e9c5146104895761014c565b806370a08231146102ef578063902494481461031f57806394b69ffa1461033b57806395d89b411461036b578063a22cb46514610389578063aca10be3146103a55761014c565b8063095ea7b311610115578063095ea7b31461022f57806323b872dd1461024b578063363dd19e1461026757806342842e0e146102715780634b871dfb1461028d5780636352211e146102bf5761014c565b8062ad800c1461015157806301ffc9a71461018157806305c58df2146101b157806306fdde03146101e1578063081812fc146101ff575b600080fd5b61016b60048036038101906101669190612116565b6104b9565b60405161017891906121d3565b60405180910390f35b61019b6004803603810190610196919061224d565b610559565b6040516101a89190612295565b60405180910390f35b6101cb60048036038101906101c69190612116565b61063b565b6040516101d891906122bf565b60405180910390f35b6101e9610653565b6040516101f691906121d3565b60405180910390f35b61021960048036038101906102149190612116565b6106e5565b604051610226919061231b565b60405180910390f35b61024960048036038101906102449190612362565b61072b565b005b610265600480360381019061026091906123a2565b610842565b005b61026f6108a2565b005b61028b600480360381019061028691906123a2565b610a42565b005b6102a760048036038101906102a29190612116565b610a62565b6040516102b6939291906123f5565b60405180910390f35b6102d960048036038101906102d49190612116565b610b38565b6040516102e6919061231b565b60405180910390f35b61030960048036038101906103049190612433565b610be9565b60405161031691906122bf565b60405180910390f35b61033960048036038101906103349190612116565b610ca0565b005b61035560048036038101906103509190612116565b610d8e565b60405161036291906122bf565b60405180910390f35b610373610da6565b60405161038091906121d3565b60405180910390f35b6103a3600480360381019061039e919061248c565b610e38565b005b6103bf60048036038101906103ba9190612116565b610e4e565b6040516103cc91906122bf565b60405180910390f35b6103ef60048036038101906103ea9190612433565b610eb1565b6040516103fc9190612295565b60405180910390f35b61041f600480360381019061041a9190612601565b610ed1565b005b61043b60048036038101906104369190612116565b610f33565b60405161044891906121d3565b60405180910390f35b61046b60048036038101906104669190612725565b611045565b005b61048760048036038101906104829190612781565b6110e0565b005b6104a3600480360381019061049e91906127c1565b611121565b6040516104b09190612295565b60405180910390f35b600960205280600052604060002060009150905080546104d890612830565b80601f016020809104026020016040519081016040528092919081815260200182805461050490612830565b80156105515780601f1061052657610100808354040283529160200191610551565b820191906000526020600020905b81548152906001019060200180831161053457829003601f168201915b505050505081565b60007f80ac58cd000000000000000000000000000000000000000000000000000000007bffffffffffffffffffffffffffffffffffffffffffffffffffffffff1916827bffffffffffffffffffffffffffffffffffffffffffffffffffffffff1916148061062457507f5b5e139f000000000000000000000000000000000000000000000000000000007bffffffffffffffffffffffffffffffffffffffffffffffffffffffff1916827bffffffffffffffffffffffffffffffffffffffffffffffffffffffff1916145b806106345750610633826111b5565b5b9050919050565b600a6020528060005260406000206000915090505481565b60606000805461066290612830565b80601f016020809104026020016040519081016040528092919081815260200182805461068e90612830565b80156106db5780601f106106b0576101008083540402835291602001916106db565b820191906000526020600020905b8154815290600101906020018083116106be57829003601f168201915b5050505050905090565b60006106f08261121f565b6004600083815260200190815260200160002060009054906101000a900473ffffffffffffffffffffffffffffffffffffffff169050919050565b600061073682610b38565b90508073ffffffffffffffffffffffffffffffffffffffff168373ffffffffffffffffffffffffffffffffffffffff16036107a6576040517f08c379a000000000000000000000000000000000000000000000000000000000815260040161079d906128d3565b60405180910390fd5b8073ffffffffffffffffffffffffffffffffffffffff166107c561126a565b73ffffffffffffffffffffffffffffffffffffffff1614806107f457506107f3816107ee61126a565b611121565b5b610833576040517f08c379a000000000000000000000000000000000000000000000000000000000815260040161082a90612965565b60405180910390fd5b61083d8383611272565b505050565b61085361084d61126a565b8261132b565b610892576040517f08c379a0000000000000000000000000000000000000000000000000000000008152600401610889906129f7565b60405180910390fd5b61089d8383836113c0565b505050565b60001515600860003373ffffffffffffffffffffffffffffffffffffffff1673ffffffffffffffffffffffffffffffffffffffff16815260200190815260200160002060009054906101000a900460ff16151514610935576040517f08c379a000000000000000000000000000000000000000000000000000000000815260040161092c90612a63565b60405180910390fd5b60006109416007611626565b905061094c33611634565b60096000838152602001908152602001600020908161096b9190612c2f565b506001600a6000838152602001908152602001600020819055506001600860003373ffffffffffffffffffffffffffffffffffffffff1673ffffffffffffffffffffffffffffffffffffffff16815260200190815260200160002060006101000a81548160ff0219169083151502179055506109e73382611661565b3373ffffffffffffffffffffffffffffffffffffffff167fbbb46266402c42849573c27abc27dd180e2b8ec8f33840ca8b0919227659e39982604051610a2d91906122bf565b60405180910390a2610a3f600761167f565b50565b610a5d83838360405180602001604052806000815250610ed1565b505050565b6060600080600960008581526020019081526020016000208054610a8590612830565b80601f0160208091040260200160405190810160405280929190818152602001828054610ab190612830565b8015610afe5780601f10610ad357610100808354040283529160200191610afe565b820191906000526020600020905b815481529060010190602001808311610ae157829003601f168201915b50505050509250600b6000858152602001908152602001600020549150600a60008581526020019081526020016000205490509193909250565b6000806002600084815260200190815260200160002060009054906101000a900473ffffffffffffffffffffffffffffffffffffffff169050600073ffffffffffffffffffffffffffffffffffffffff168173ffffffffffffffffffffffffffffffffffffffff1603610be0576040517f08c379a0000000000000000000000000000000000000000000000000000000008152600401610bd790612d4d565b60405180910390fd5b80915050919050565b60008073ffffffffffffffffffffffffffffffffffffffff168273ffffffffffffffffffffffffffffffffffffffff1603610c59576040517f08c379a0000000000000000000000000000000000000000000000000000000008152600401610c5090612ddf565b60405180910390fd5b600360008373ffffffffffffffffffffffffffffffffffffffff1673ffffffffffffffffffffffffffffffffffffffff168152602001908152602001600020549050919050565b610caa338261132b565b610cb357600080fd5b6000600a60008381526020019081526020016000205490506000610cd682610e4e565b905080600b60008581526020019081526020016000206000828254610cfb9190612e2e565b92505081905550600182610d0f9190612e62565b600a6000858152602001908152602001600020819055503373ffffffffffffffffffffffffffffffffffffffff167f943b00a67689342d89989c0bf7b5f4840b8c5a29e1383dc391a903626b3327c0600a60008681526020019081526020016000205485604051610d81929190612e96565b60405180910390a2505050565b600b6020528060005260406000206000915090505481565b606060018054610db590612830565b80601f0160208091040260200160405190810160405280929190818152602001828054610de190612830565b8015610e2e5780601f10610e0357610100808354040283529160200191610e2e565b820191906000526020600020905b815481529060010190602001808311610e1157829003601f168201915b5050505050905090565b610e4a610e4361126a565b8383611695565b5050565b6000683635c9adc5dea0000082610e659190612ebf565b90506000600190505b82811015610eab57683635c9adc5dea0000083610e8b9190612ebf565b82610e969190612e62565b91508080610ea390612f01565b915050610e6e565b50919050565b60086020528060005260406000206000915054906101000a900460ff1681565b610ee2610edc61126a565b8361132b565b610f21576040517f08c379a0000000000000000000000000000000000000000000000000000000008152600401610f18906129f7565b60405180910390fd5b610f2d84848484611801565b50505050565b6060610f3e8261121f565b6000600660008481526020019081526020016000208054610f5e90612830565b80601f0160208091040260200160405190810160405280929190818152602001828054610f8a90612830565b8015610fd75780601f10610fac57610100808354040283529160200191610fd7565b820191906000526020600020905b815481529060010190602001808311610fba57829003601f168201915b505050505090506000610fe861185d565b90506000815103610ffd578192505050611040565b60008251111561103257808260405160200161101a929190612f85565b60405160208183030381529060405292505050611040565b61103b84611874565b925050505b919050565b61104f338361132b565b61105857600080fd5b806009600084815260200190815260200160002090816110789190612c2f565b503373ffffffffffffffffffffffffffffffffffffffff167f868c181b8c4c8c979246712f8d7022c869a58c0aeda1754222b1ab98a588e2c0600a600085815260200190815260200160002054846040516110d4929190612e96565b60405180910390a25050565b6110ea338361132b565b6110f357600080fd5b80600b600084815260200190815260200160002060008282546111169190612e2e565b925050819055505050565b6000600560008473ffffffffffffffffffffffffffffffffffffffff1673ffffffffffffffffffffffffffffffffffffffff16815260200190815260200160002060008373ffffffffffffffffffffffffffffffffffffffff1673ffffffffffffffffffffffffffffffffffffffff16815260200190815260200160002060009054906101000a900460ff16905092915050565b60007f01ffc9a7000000000000000000000000000000000000000000000000000000007bffffffffffffffffffffffffffffffffffffffffffffffffffffffff1916827bffffffffffffffffffffffffffffffffffffffffffffffffffffffff1916149050919050565b611228816118dc565b611267576040517f08c379a000000000000000000000000000000000000000000000000000000000815260040161125e90612d4d565b60405180910390fd5b50565b600033905090565b816004600083815260200190815260200160002060006101000a81548173ffffffffffffffffffffffffffffffffffffffff021916908373ffffffffffffffffffffffffffffffffffffffff160217905550808273ffffffffffffffffffffffffffffffffffffffff166112e583610b38565b73ffffffffffffffffffffffffffffffffffffffff167f8c5be1e5ebec7d5bd14f71427d1e84f3dd0314c0f7b2291e5b200ac8c7c3b92560405160405180910390a45050565b60008061133783610b38565b90508073ffffffffffffffffffffffffffffffffffffffff168473ffffffffffffffffffffffffffffffffffffffff16148061137957506113788185611121565b5b806113b757508373ffffffffffffffffffffffffffffffffffffffff1661139f846106e5565b73ffffffffffffffffffffffffffffffffffffffff16145b91505092915050565b8273ffffffffffffffffffffffffffffffffffffffff166113e082610b38565b73ffffffffffffffffffffffffffffffffffffffff1614611436576040517f08c379a000000000000000000000000000000000000000000000000000000000815260040161142d9061301b565b60405180910390fd5b600073ffffffffffffffffffffffffffffffffffffffff168273ffffffffffffffffffffffffffffffffffffffff16036114a5576040517f08c379a000000000000000000000000000000000000000000000000000000000815260040161149c906130ad565b60405180910390fd5b6114b0838383611948565b6114bb600082611272565b6001600360008573ffffffffffffffffffffffffffffffffffffffff1673ffffffffffffffffffffffffffffffffffffffff168152602001908152602001600020600082825461150b9190612e2e565b925050819055506001600360008473ffffffffffffffffffffffffffffffffffffffff1673ffffffffffffffffffffffffffffffffffffffff16815260200190815260200160002060008282546115629190612e62565b92505081905550816002600083815260200190815260200160002060006101000a81548173ffffffffffffffffffffffffffffffffffffffff021916908373ffffffffffffffffffffffffffffffffffffffff160217905550808273ffffffffffffffffffffffffffffffffffffffff168473ffffffffffffffffffffffffffffffffffffffff167fddf252ad1be2c89b69c2b068fc378daa952ba7f163c4a11628f55a4df523b3ef60405160405180910390a461162183838361194d565b505050565b600081600001549050919050565b606061165a8273ffffffffffffffffffffffffffffffffffffffff16601460ff16611952565b9050919050565b61167b828260405180602001604052806000815250611b8e565b5050565b6001816000016000828254019250508190555050565b8173ffffffffffffffffffffffffffffffffffffffff168373ffffffffffffffffffffffffffffffffffffffff1603611703576040517f08c379a00000000000000000000000000000000000000000000000000000000081526004016116fa90613119565b60405180910390fd5b80600560008573ffffffffffffffffffffffffffffffffffffffff1673ffffffffffffffffffffffffffffffffffffffff16815260200190815260200160002060008473ffffffffffffffffffffffffffffffffffffffff1673ffffffffffffffffffffffffffffffffffffffff16815260200190815260200160002060006101000a81548160ff0219169083151502179055508173ffffffffffffffffffffffffffffffffffffffff168373ffffffffffffffffffffffffffffffffffffffff167f17307eab39ab6107e8899845ad3d59bd9653f200f220920489ca2b5937696c31836040516117f49190612295565b60405180910390a3505050565b61180c8484846113c0565b61181884848484611be9565b611857576040517f08c379a000000000000000000000000000000000000000000000000000000000815260040161184e906131ab565b60405180910390fd5b50505050565b606060405180602001604052806000815250905090565b606061187f8261121f565b600061188961185d565b905060008151116118a957604051806020016040528060008152506118d4565b806118b384611d70565b6040516020016118c4929190612f85565b6040516020818303038152906040525b915050919050565b60008073ffffffffffffffffffffffffffffffffffffffff166002600084815260200190815260200160002060009054906101000a900473ffffffffffffffffffffffffffffffffffffffff1673ffffffffffffffffffffffffffffffffffffffff1614159050919050565b505050565b505050565b6060600060028360026119659190612ebf565b61196f9190612e62565b67ffffffffffffffff811115611988576119876124d6565b5b6040519080825280601f01601f1916602001820160405280156119ba5781602001600182028036833780820191505090505b5090507f3000000000000000000000000000000000000000000000000000000000000000816000815181106119f2576119f16131cb565b5b60200101907effffffffffffffffffffffffffffffffffffffffffffffffffffffffffffff1916908160001a9053507f780000000000000000000000000000000000000000000000000000000000000081600181518110611a5657611a556131cb565b5b60200101907effffffffffffffffffffffffffffffffffffffffffffffffffffffffffffff1916908160001a90535060006001846002611a969190612ebf565b611aa09190612e62565b90505b6001811115611b40577f3031323334353637383961626364656600000000000000000000000000000000600f861660108110611ae257611ae16131cb565b5b1a60f81b828281518110611af957611af86131cb565b5b60200101907effffffffffffffffffffffffffffffffffffffffffffffffffffffffffffff1916908160001a905350600485901c945080611b39906131fa565b9050611aa3565b5060008414611b84576040517f08c379a0000000000000000000000000000000000000000000000000000000008152600401611b7b9061326f565b60405180910390fd5b8091505092915050565b611b988383611ed0565b611ba56000848484611be9565b611be4576040517f08c379a0000000000000000000000000000000000000000000000000000000008152600401611bdb906131ab565b60405180910390fd5b505050565b6000611c0a8473ffffffffffffffffffffffffffffffffffffffff166120a9565b15611d63578373ffffffffffffffffffffffffffffffffffffffff1663150b7a02611c3361126a565b8786866040518563ffffffff1660e01b8152600401611c5594939291906132e4565b6020604051808303816000875af1925050508015611c9157506040513d601f19601f82011682018060405250810190611c8e9190613345565b60015b611d13573d8060008114611cc1576040519150601f19603f3d011682016040523d82523d6000602084013e611cc6565b606091505b506000815103611d0b576040517f08c379a0000000000000000000000000000000000000000000000000000000008152600401611d02906131ab565b60405180910390fd5b805181602001fd5b63150b7a0260e01b7bffffffffffffffffffffffffffffffffffffffffffffffffffffffff1916817bffffffffffffffffffffffffffffffffffffffffffffffffffffffff191614915050611d68565b600190505b949350505050565b606060008203611db7576040518060400160405280600181526020017f30000000000000000000000000000000000000000000000000000000000000008152509050611ecb565b600082905060005b60008214611de9578080611dd290612f01565b915050600a82611de291906133a1565b9150611dbf565b60008167ffffffffffffffff811115611e0557611e046124d6565b5b6040519080825280601f01601f191660200182016040528015611e375781602001600182028036833780820191505090505b5090505b60008514611ec457600182611e509190612e2e565b9150600a85611e5f91906133d2565b6030611e6b9190612e62565b60f81b818381518110611e8157611e806131cb565b5b60200101907effffffffffffffffffffffffffffffffffffffffffffffffffffffffffffff1916908160001a905350600a85611ebd91906133a1565b9450611e3b565b8093505050505b919050565b600073ffffffffffffffffffffffffffffffffffffffff168273ffffffffffffffffffffffffffffffffffffffff1603611f3f576040517f08c379a0000000000000000000000000000000000000000000000000000000008152600401611f369061344f565b60405180910390fd5b611f48816118dc565b15611f88576040517f08c379a0000000000000000000000000000000000000000000000000000000008152600401611f7f906134bb565b60405180910390fd5b611f9460008383611948565b6001600360008473ffffffffffffffffffffffffffffffffffffffff1673ffffffffffffffffffffffffffffffffffffffff1681526020019081526020016000206000828254611fe49190612e62565b92505081905550816002600083815260200190815260200160002060006101000a81548173ffffffffffffffffffffffffffffffffffffffff021916908373ffffffffffffffffffffffffffffffffffffffff160217905550808273ffffffffffffffffffffffffffffffffffffffff16600073ffffffffffffffffffffffffffffffffffffffff167fddf252ad1be2c89b69c2b068fc378daa952ba7f163c4a11628f55a4df523b3ef60405160405180910390a46120a56000838361194d565b5050565b6000808273ffffffffffffffffffffffffffffffffffffffff163b119050919050565b6000604051905090565b600080fd5b600080fd5b6000819050919050565b6120f3816120e0565b81146120fe57600080fd5b50565b600081359050612110816120ea565b92915050565b60006020828403121561212c5761212b6120d6565b5b600061213a84828501612101565b91505092915050565b600081519050919050565b600082825260208201905092915050565b60005b8381101561217d578082015181840152602081019050612162565b60008484015250505050565b6000601f19601f8301169050919050565b60006121a582612143565b6121af818561214e565b93506121bf81856020860161215f565b6121c881612189565b840191505092915050565b600060208201905081810360008301526121ed818461219a565b905092915050565b60007fffffffff0000000000000000000000000000000000000000000000000000000082169050919050565b61222a816121f5565b811461223557600080fd5b50565b60008135905061224781612221565b92915050565b600060208284031215612263576122626120d6565b5b600061227184828501612238565b91505092915050565b60008115159050919050565b61228f8161227a565b82525050565b60006020820190506122aa6000830184612286565b92915050565b6122b9816120e0565b82525050565b60006020820190506122d460008301846122b0565b92915050565b600073ffffffffffffffffffffffffffffffffffffffff82169050919050565b6000612305826122da565b9050919050565b612315816122fa565b82525050565b6000602082019050612330600083018461230c565b92915050565b61233f816122fa565b811461234a57600080fd5b50565b60008135905061235c81612336565b92915050565b60008060408385031215612379576123786120d6565b5b60006123878582860161234d565b925050602061239885828601612101565b9150509250929050565b6000806000606084860312156123bb576123ba6120d6565b5b60006123c98682870161234d565b93505060206123da8682870161234d565b92505060406123eb86828701612101565b9150509250925092565b6000606082019050818103600083015261240f818661219a565b905061241e60208301856122b0565b61242b60408301846122b0565b949350505050565b600060208284031215612449576124486120d6565b5b60006124578482850161234d565b91505092915050565b6124698161227a565b811461247457600080fd5b50565b60008135905061248681612460565b92915050565b600080604083850312156124a3576124a26120d6565b5b60006124b18582860161234d565b92505060206124c285828601612477565b9150509250929050565b600080fd5b600080fd5b7f4e487b7100000000000000000000000000000000000000000000000000000000600052604160045260246000fd5b61250e82612189565b810181811067ffffffffffffffff8211171561252d5761252c6124d6565b5b80604052505050565b60006125406120cc565b905061254c8282612505565b919050565b600067ffffffffffffffff82111561256c5761256b6124d6565b5b61257582612189565b9050602081019050919050565b82818337600083830152505050565b60006125a461259f84612551565b612536565b9050828152602081018484840111156125c0576125bf6124d1565b5b6125cb848285612582565b509392505050565b600082601f8301126125e8576125e76124cc565b5b81356125f8848260208601612591565b91505092915050565b6000806000806080858703121561261b5761261a6120d6565b5b60006126298782880161234d565b945050602061263a8782880161234d565b935050604061264b87828801612101565b925050606085013567ffffffffffffffff81111561266c5761266b6120db565b5b612678878288016125d3565b91505092959194509250565b600067ffffffffffffffff82111561269f5761269e6124d6565b5b6126a882612189565b9050602081019050919050565b60006126c86126c384612684565b612536565b9050828152602081018484840111156126e4576126e36124d1565b5b6126ef848285612582565b509392505050565b600082601f83011261270c5761270b6124cc565b5b813561271c8482602086016126b5565b91505092915050565b6000806040838503121561273c5761273b6120d6565b5b600061274a85828601612101565b925050602083013567ffffffffffffffff81111561276b5761276a6120db565b5b612777858286016126f7565b9150509250929050565b60008060408385031215612798576127976120d6565b5b60006127a685828601612101565b92505060206127b785828601612101565b9150509250929050565b600080604083850312156127d8576127d76120d6565b5b60006127e68582860161234d565b92505060206127f78582860161234d565b9150509250929050565b7f4e487b7100000000000000000000000000000000000000000000000000000000600052602260045260246000fd5b6000600282049050600182168061284857607f821691505b60208210810361285b5761285a612801565b5b50919050565b7f4552433732313a20617070726f76616c20746f2063757272656e74206f776e6560008201527f7200000000000000000000000000000000000000000000000000000000000000602082015250565b60006128bd60218361214e565b91506128c882612861565b604082019050919050565b600060208201905081810360008301526128ec816128b0565b9050919050565b7f4552433732313a20617070726f76652063616c6c6572206973206e6f7420746f60008201527f6b656e206f776e6572206e6f7220617070726f76656420666f7220616c6c0000602082015250565b600061294f603e8361214e565b915061295a826128f3565b604082019050919050565b6000602082019050818103600083015261297e81612942565b9050919050565b7f4552433732313a2063616c6c6572206973206e6f7420746f6b656e206f776e6560008201527f72206e6f7220617070726f766564000000000000000000000000000000000000602082015250565b60006129e1602e8361214e565b91506129ec82612985565b604082019050919050565b60006020820190508181036000830152612a10816129d4565b9050919050565b7f416c72656164792073756d6d6f6e656400000000000000000000000000000000600082015250565b6000612a4d60108361214e565b9150612a5882612a17565b602082019050919050565b60006020820190508181036000830152612a7c81612a40565b9050919050565b60008190508160005260206000209050919050565b60006020601f8301049050919050565b600082821b905092915050565b600060088302612ae57fffffffffffffffffffffffffffffffffffffffffffffffffffffffffffffffff82612aa8565b612aef8683612aa8565b95508019841693508086168417925050509392505050565b6000819050919050565b6000612b2c612b27612b22846120e0565b612b07565b6120e0565b9050919050565b6000819050919050565b612b4683612b11565b612b5a612b5282612b33565b848454612ab5565b825550505050565b600090565b612b6f612b62565b612b7a818484612b3d565b505050565b5b81811015612b9e57612b93600082612b67565b600181019050612b80565b5050565b601f821115612be357612bb481612a83565b612bbd84612a98565b81016020851015612bcc578190505b612be0612bd885612a98565b830182612b7f565b50505b505050565b600082821c905092915050565b6000612c0660001984600802612be8565b1980831691505092915050565b6000612c1f8383612bf5565b9150826002028217905092915050565b612c3882612143565b67ffffffffffffffff811115612c5157612c506124d6565b5b612c5b8254612830565b612c66828285612ba2565b600060209050601f831160018114612c995760008415612c87578287015190505b612c918582612c13565b865550612cf9565b601f198416612ca786612a83565b60005b82811015612ccf57848901518255600182019150602085019450602081019050612caa565b86831015612cec5784890151612ce8601f891682612bf5565b8355505b6001600288020188555050505b505050505050565b7f4552433732313a20696e76616c696420746f6b656e2049440000000000000000600082015250565b6000612d3760188361214e565b9150612d4282612d01565b602082019050919050565b60006020820190508181036000830152612d6681612d2a565b9050919050565b7f4552433732313a2061646472657373207a65726f206973206e6f74206120766160008201527f6c6964206f776e65720000000000000000000000000000000000000000000000602082015250565b6000612dc960298361214e565b9150612dd482612d6d565b604082019050919050565b60006020820190508181036000830152612df881612dbc565b9050919050565b7f4e487b7100000000000000000000000000000000000000000000000000000000600052601160045260246000fd5b6000612e39826120e0565b9150612e44836120e0565b9250828203905081811115612e5c57612e5b612dff565b5b92915050565b6000612e6d826120e0565b9150612e78836120e0565b9250828201905080821115612e9057612e8f612dff565b5b92915050565b6000604082019050612eab60008301856122b0565b612eb860208301846122b0565b9392505050565b6000612eca826120e0565b9150612ed5836120e0565b9250828202612ee3816120e0565b91508282048414831517612efa57612ef9612dff565b5b5092915050565b6000612f0c826120e0565b91507fffffffffffffffffffffffffffffffffffffffffffffffffffffffffffffffff8203612f3e57612f3d612dff565b5b600182019050919050565b600081905092915050565b6000612f5f82612143565b612f698185612f49565b9350612f7981856020860161215f565b80840191505092915050565b6000612f918285612f54565b9150612f9d8284612f54565b91508190509392505050565b7f4552433732313a207472616e736665722066726f6d20696e636f72726563742060008201527f6f776e6572000000000000000000000000000000000000000000000000000000602082015250565b600061300560258361214e565b915061301082612fa9565b604082019050919050565b6000602082019050818103600083015261303481612ff8565b9050919050565b7f4552433732313a207472616e7366657220746f20746865207a65726f2061646460008201527f7265737300000000000000000000000000000000000000000000000000000000602082015250565b600061309760248361214e565b91506130a28261303b565b604082019050919050565b600060208201905081810360008301526130c68161308a565b9050919050565b7f4552433732313a20617070726f766520746f2063616c6c657200000000000000600082015250565b600061310360198361214e565b915061310e826130cd565b602082019050919050565b60006020820190508181036000830152613132816130f6565b9050919050565b7f4552433732313a207472616e7366657220746f206e6f6e20455243373231526560008201527f63656976657220696d706c656d656e7465720000000000000000000000000000602082015250565b600061319560328361214e565b91506131a082613139565b604082019050919050565b600060208201905081810360008301526131c481613188565b9050919050565b7f4e487b7100000000000000000000000000000000000000000000000000000000600052603260045260246000fd5b6000613205826120e0565b91506000820361321857613217612dff565b5b600182039050919050565b7f537472696e67733a20686578206c656e67746820696e73756666696369656e74600082015250565b600061325960208361214e565b915061326482613223565b602082019050919050565b600060208201905081810360008301526132888161324c565b9050919050565b600081519050919050565b600082825260208201905092915050565b60006132b68261328f565b6132c0818561329a565b93506132d081856020860161215f565b6132d981612189565b840191505092915050565b60006080820190506132f9600083018761230c565b613306602083018661230c565b61331360408301856122b0565b818103606083015261332581846132ab565b905095945050505050565b60008151905061333f81612221565b92915050565b60006020828403121561335b5761335a6120d6565b5b600061336984828501613330565b91505092915050565b7f4e487b7100000000000000000000000000000000000000000000000000000000600052601260045260246000fd5b60006133ac826120e0565b91506133b7836120e0565b9250826133c7576133c6613372565b5b828204905092915050565b60006133dd826120e0565b91506133e8836120e0565b9250826133f8576133f7613372565b5b828206905092915050565b7f4552433732313a206d696e7420746f20746865207a65726f2061646472657373600082015250565b600061343960208361214e565b915061344482613403565b602082019050919050565b600060208201905081810360008301526134688161342c565b9050919050565b7f4552433732313a20746f6b656e20616c7265616479206d696e74656400000000600082015250565b60006134a5601c8361214e565b91506134b08261346f565b602082019050919050565b600060208201905081810360008301526134d481613498565b905091905056fea2646970667358221220a26afbb7fe61dae4de15925fafaaa8b8543d5fbb11377e3ff491339c61b7c26064736f6c63430008110033",
  "devdoc": {
    "kind": "dev",
    "methods": {
      "approve(address,uint256)": {
        "details": "See {IERC721-approve}."
      },
      "balanceOf(address)": {
        "details": "See {IERC721-balanceOf}."
      },
      "getApproved(uint256)": {
        "details": "See {IERC721-getApproved}."
      },
      "isApprovedForAll(address,address)": {
        "details": "See {IERC721-isApprovedForAll}."
      },
      "name()": {
        "details": "See {IERC721Metadata-name}."
      },
      "ownerOf(uint256)": {
        "details": "See {IERC721-ownerOf}."
      },
      "safeTransferFrom(address,address,uint256)": {
        "details": "See {IERC721-safeTransferFrom}."
      },
      "safeTransferFrom(address,address,uint256,bytes)": {
        "details": "See {IERC721-safeTransferFrom}."
      },
      "setApprovalForAll(address,bool)": {
        "details": "See {IERC721-setApprovalForAll}."
      },
      "supportsInterface(bytes4)": {
        "details": "See {IERC165-supportsInterface}."
      },
      "symbol()": {
        "details": "See {IERC721Metadata-symbol}."
      },
      "tokenURI(uint256)": {
        "details": "See {IERC721Metadata-tokenURI}."
      },
      "transferFrom(address,address,uint256)": {
        "details": "See {IERC721-transferFrom}."
      }
    },
    "version": 1
  },
  "userdoc": {
    "kind": "user",
    "methods": {},
    "version": 1
  },
  "storageLayout": {
    "storage": [
      {
        "astId": 1250,
        "contract": "contracts/core/Character.sol:Character",
        "label": "_name",
        "offset": 0,
        "slot": "0",
        "type": "t_string_storage"
      },
      {
        "astId": 1252,
        "contract": "contracts/core/Character.sol:Character",
        "label": "_symbol",
        "offset": 0,
        "slot": "1",
        "type": "t_string_storage"
      },
      {
        "astId": 1256,
        "contract": "contracts/core/Character.sol:Character",
        "label": "_owners",
        "offset": 0,
        "slot": "2",
        "type": "t_mapping(t_uint256,t_address)"
      },
      {
        "astId": 1260,
        "contract": "contracts/core/Character.sol:Character",
        "label": "_balances",
        "offset": 0,
        "slot": "3",
        "type": "t_mapping(t_address,t_uint256)"
      },
      {
        "astId": 1264,
        "contract": "contracts/core/Character.sol:Character",
        "label": "_tokenApprovals",
        "offset": 0,
        "slot": "4",
        "type": "t_mapping(t_uint256,t_address)"
      },
      {
        "astId": 1270,
        "contract": "contracts/core/Character.sol:Character",
        "label": "_operatorApprovals",
        "offset": 0,
        "slot": "5",
        "type": "t_mapping(t_address,t_mapping(t_address,t_bool))"
      },
      {
        "astId": 2238,
        "contract": "contracts/core/Character.sol:Character",
        "label": "_tokenURIs",
        "offset": 0,
        "slot": "6",
        "type": "t_mapping(t_uint256,t_string_storage)"
      },
      {
        "astId": 5149,
        "contract": "contracts/core/Character.sol:Character",
        "label": "_tokenIdCounter",
        "offset": 0,
        "slot": "7",
        "type": "t_struct(Counter)2700_storage"
      },
      {
        "astId": 5153,
        "contract": "contracts/core/Character.sol:Character",
        "label": "minted_address",
        "offset": 0,
        "slot": "8",
        "type": "t_mapping(t_address,t_bool)"
      },
      {
        "astId": 5157,
        "contract": "contracts/core/Character.sol:Character",
        "label": "name",
        "offset": 0,
        "slot": "9",
        "type": "t_mapping(t_uint256,t_string_storage)"
      },
      {
        "astId": 5161,
        "contract": "contracts/core/Character.sol:Character",
        "label": "level",
        "offset": 0,
        "slot": "10",
        "type": "t_mapping(t_uint256,t_uint256)"
      },
      {
        "astId": 5165,
        "contract": "contracts/core/Character.sol:Character",
        "label": "xp",
        "offset": 0,
        "slot": "11",
        "type": "t_mapping(t_uint256,t_uint256)"
      }
    ],
    "types": {
      "t_address": {
        "encoding": "inplace",
        "label": "address",
        "numberOfBytes": "20"
      },
      "t_bool": {
        "encoding": "inplace",
        "label": "bool",
        "numberOfBytes": "1"
      },
      "t_mapping(t_address,t_bool)": {
        "encoding": "mapping",
        "key": "t_address",
        "label": "mapping(address => bool)",
        "numberOfBytes": "32",
        "value": "t_bool"
      },
      "t_mapping(t_address,t_mapping(t_address,t_bool))": {
        "encoding": "mapping",
        "key": "t_address",
        "label": "mapping(address => mapping(address => bool))",
        "numberOfBytes": "32",
        "value": "t_mapping(t_address,t_bool)"
      },
      "t_mapping(t_address,t_uint256)": {
        "encoding": "mapping",
        "key": "t_address",
        "label": "mapping(address => uint256)",
        "numberOfBytes": "32",
        "value": "t_uint256"
      },
      "t_mapping(t_uint256,t_address)": {
        "encoding": "mapping",
        "key": "t_uint256",
        "label": "mapping(uint256 => address)",
        "numberOfBytes": "32",
        "value": "t_address"
      },
      "t_mapping(t_uint256,t_string_storage)": {
        "encoding": "mapping",
        "key": "t_uint256",
        "label": "mapping(uint256 => string)",
        "numberOfBytes": "32",
        "value": "t_string_storage"
      },
      "t_mapping(t_uint256,t_uint256)": {
        "encoding": "mapping",
        "key": "t_uint256",
        "label": "mapping(uint256 => uint256)",
        "numberOfBytes": "32",
        "value": "t_uint256"
      },
      "t_string_storage": {
        "encoding": "bytes",
        "label": "string",
        "numberOfBytes": "32"
      },
      "t_struct(Counter)2700_storage": {
        "encoding": "inplace",
        "label": "struct Counters.Counter",
        "members": [
          {
            "astId": 2699,
            "contract": "contracts/core/Character.sol:Character",
            "label": "_value",
            "offset": 0,
            "slot": "0",
            "type": "t_uint256"
          }
        ],
        "numberOfBytes": "32"
      },
      "t_uint256": {
        "encoding": "inplace",
        "label": "uint256",
        "numberOfBytes": "32"
      }
    }
  }
}