{
  "address": "0x21739822dC9B368c35592B4533184CbFcAC84Ade",
  "abi": [
    {
      "inputs": [
        {
          "internalType": "contract IERC721",
          "name": "_nftCollection",
          "type": "address"
        },
        {
          "internalType": "contract IERC20",
          "name": "_coin",
          "type": "address"
        },
        {
          "internalType": "address",
          "name": "charAddr",
          "type": "address"
        }
      ],
      "stateMutability": "nonpayable",
      "type": "constructor"
    },
    {
      "inputs": [
        {
          "internalType": "address",
          "name": "_staker",
          "type": "address"
        }
      ],
      "name": "availableRewards",
      "outputs": [
        {
          "internalType": "uint256",
          "name": "",
          "type": "uint256"
        }
      ],
      "stateMutability": "view",
      "type": "function"
    },
    {
      "inputs": [
        {
          "internalType": "uint256",
          "name": "_hunter",
          "type": "uint256"
        }
      ],
      "name": "claimRewards",
      "outputs": [],
      "stateMutability": "nonpayable",
      "type": "function"
    },
    {
      "inputs": [],
      "name": "coin",
      "outputs": [
        {
          "internalType": "contract IERC20",
          "name": "",
          "type": "address"
        }
      ],
      "stateMutability": "view",
      "type": "function"
    },
    {
      "inputs": [
        {
          "internalType": "address",
          "name": "_user",
          "type": "address"
        }
      ],
      "name": "getStakedTokens",
      "outputs": [
        {
          "components": [
            {
              "internalType": "address",
              "name": "staker",
              "type": "address"
            },
            {
              "internalType": "uint256",
              "name": "tokenId",
              "type": "uint256"
            }
          ],
          "internalType": "struct Staking.StakedToken[]",
          "name": "",
          "type": "tuple[]"
        }
      ],
      "stateMutability": "view",
      "type": "function"
    },
    {
      "inputs": [],
      "name": "hunter",
      "outputs": [
        {
          "internalType": "contract Character",
          "name": "",
          "type": "address"
        }
      ],
      "stateMutability": "view",
      "type": "function"
    },
    {
      "inputs": [],
      "name": "nftCollection",
      "outputs": [
        {
          "internalType": "contract IERC721",
          "name": "",
          "type": "address"
        }
      ],
      "stateMutability": "view",
      "type": "function"
    },
    {
      "inputs": [
        {
          "internalType": "uint256",
          "name": "_tokenId",
          "type": "uint256"
        }
      ],
      "name": "stake",
      "outputs": [],
      "stateMutability": "nonpayable",
      "type": "function"
    },
    {
      "inputs": [
        {
          "internalType": "uint256",
          "name": "",
          "type": "uint256"
        }
      ],
      "name": "stakerAddress",
      "outputs": [
        {
          "internalType": "address",
          "name": "",
          "type": "address"
        }
      ],
      "stateMutability": "view",
      "type": "function"
    },
    {
      "inputs": [
        {
          "internalType": "address",
          "name": "",
          "type": "address"
        }
      ],
      "name": "stakers",
      "outputs": [
        {
          "internalType": "uint256",
          "name": "amountStaked",
          "type": "uint256"
        },
        {
          "internalType": "uint256",
          "name": "timeOfLastUpdate",
          "type": "uint256"
        },
        {
          "internalType": "uint256",
          "name": "unclaimedRewards",
          "type": "uint256"
        }
      ],
      "stateMutability": "view",
      "type": "function"
    },
    {
      "inputs": [
        {
          "internalType": "uint256",
          "name": "_tokenId",
          "type": "uint256"
        }
      ],
      "name": "withdraw",
      "outputs": [],
      "stateMutability": "nonpayable",
      "type": "function"
    }
  ],
  "transactionHash": "0x395987965ff81363663eb8cc9cd2d3f46ec098262bac5526a4a7d9f4cb655bde",
  "args": [
    "0x471fc0316a667116a63d90f1C3f9E80fDd71D089",
    "0x9E947F779154CEEb005b9f23DBF6CaC22a588187",
    "0x8b0e2E8152a6aA007C38fb15781F360250fa67b9"
  ],
  "numDeployments": 1,
  "solcInputHash": "47ca64a29061e1a273ea224c6e846450",
  "bytecode": "0x60e0604052620186a06001553480156200001857600080fd5b50604051620025a1380380620025a183398181016040528101906200003e9190620001df565b60016000819055508273ffffffffffffffffffffffffffffffffffffffff1660808173ffffffffffffffffffffffffffffffffffffffff16815250508173ffffffffffffffffffffffffffffffffffffffff1660a08173ffffffffffffffffffffffffffffffffffffffff16815250508073ffffffffffffffffffffffffffffffffffffffff1660c08173ffffffffffffffffffffffffffffffffffffffff16815250505050506200023b565b600080fd5b600073ffffffffffffffffffffffffffffffffffffffff82169050919050565b60006200011d82620000f0565b9050919050565b6000620001318262000110565b9050919050565b620001438162000124565b81146200014f57600080fd5b50565b600081519050620001638162000138565b92915050565b6000620001768262000110565b9050919050565b620001888162000169565b81146200019457600080fd5b50565b600081519050620001a8816200017d565b92915050565b620001b98162000110565b8114620001c557600080fd5b50565b600081519050620001d981620001ae565b92915050565b600080600060608486031215620001fb57620001fa620000eb565b5b60006200020b8682870162000152565b93505060206200021e8682870162000197565b92505060406200023186828701620001c8565b9150509250925092565b60805160a05160c05161230c62000295600039600081816103c601528181611273015261134101526000818161035801526103a20152600081816108ab01528181610cf401528181610e8c0152610f7c015261230c6000f3fe608060405234801561001057600080fd5b506004361061009e5760003560e01c80636588103b116100665780636588103b146101475780639168ae72146101655780639406704514610197578063a694fc3a146101c7578063f854a27f146101e35761009e565b80630962ef79146100a357806311df9995146100bf5780631602f7b0146100dd5780632e1a7d4d146100fb57806363c28db114610117575b600080fd5b6100bd60048036038101906100b89190611824565b610213565b005b6100c76103a0565b6040516100d491906118d0565b60405180910390f35b6100e56103c4565b6040516100f2919061190c565b60405180910390f35b61011560048036038101906101109190611824565b6103e8565b005b610131600480360381019061012c9190611965565b61098c565b60405161013e9190611a8e565b60405180910390f35b61014f610cf2565b60405161015c9190611ad1565b60405180910390f35b61017f600480360381019061017a9190611965565b610d16565b60405161018e93929190611afb565b60405180910390f35b6101b160048036038101906101ac9190611824565b610d40565b6040516101be9190611b41565b60405180910390f35b6101e160048036038101906101dc9190611824565b610d73565b005b6101fd60048036038101906101f89190611965565b6111f4565b60405161020a9190611b5c565b60405180910390f35b61021c81611258565b61022557600080fd5b6000600260003373ffffffffffffffffffffffffffffffffffffffff1673ffffffffffffffffffffffffffffffffffffffff16815260200190815260200160002060030154610273336113f8565b61027d9190611ba6565b9050600081116102c2576040517f08c379a00000000000000000000000000000000000000000000000000000000081526004016102b990611c37565b60405180910390fd5b42600260003373ffffffffffffffffffffffffffffffffffffffff1673ffffffffffffffffffffffffffffffffffffffff168152602001908152602001600020600201819055506000600260003373ffffffffffffffffffffffffffffffffffffffff1673ffffffffffffffffffffffffffffffffffffffff1681526020019081526020016000206003018190555061039c33827f000000000000000000000000000000000000000000000000000000000000000073ffffffffffffffffffffffffffffffffffffffff166114b69092919063ffffffff16565b5050565b7f000000000000000000000000000000000000000000000000000000000000000081565b7f000000000000000000000000000000000000000000000000000000000000000081565b60026000540361042d576040517f08c379a000000000000000000000000000000000000000000000000000000000815260040161042490611ca3565b60405180910390fd5b60026000819055506000600260003373ffffffffffffffffffffffffffffffffffffffff1673ffffffffffffffffffffffffffffffffffffffff16815260200190815260200160002060000154116104ba576040517f08c379a00000000000000000000000000000000000000000000000000000000081526004016104b190611d0f565b60405180910390fd5b3373ffffffffffffffffffffffffffffffffffffffff166003600083815260200190815260200160002060009054906101000a900473ffffffffffffffffffffffffffffffffffffffff1673ffffffffffffffffffffffffffffffffffffffff161461055b576040517f08c379a000000000000000000000000000000000000000000000000000000000815260040161055290611d7b565b60405180910390fd5b6000610566336113f8565b905080600260003373ffffffffffffffffffffffffffffffffffffffff1673ffffffffffffffffffffffffffffffffffffffff16815260200190815260200160002060030160008282546105ba9190611ba6565b925050819055506000805b600260003373ffffffffffffffffffffffffffffffffffffffff1673ffffffffffffffffffffffffffffffffffffffff168152602001908152602001600020600101805490508110156107585783600260003373ffffffffffffffffffffffffffffffffffffffff1673ffffffffffffffffffffffffffffffffffffffff168152602001908152602001600020600101828154811061066757610666611d9b565b5b9060005260206000209060020201600101541480156107385750600073ffffffffffffffffffffffffffffffffffffffff16600260003373ffffffffffffffffffffffffffffffffffffffff1673ffffffffffffffffffffffffffffffffffffffff16815260200190815260200160002060010182815481106106ed576106ec611d9b565b5b906000526020600020906002020160000160009054906101000a900473ffffffffffffffffffffffffffffffffffffffff1673ffffffffffffffffffffffffffffffffffffffff1614155b1561074557809150610758565b808061075090611dca565b9150506105c5565b506000600260003373ffffffffffffffffffffffffffffffffffffffff1673ffffffffffffffffffffffffffffffffffffffff16815260200190815260200160002060010182815481106107af576107ae611d9b565b5b906000526020600020906002020160000160006101000a81548173ffffffffffffffffffffffffffffffffffffffff021916908373ffffffffffffffffffffffffffffffffffffffff160217905550600260003373ffffffffffffffffffffffffffffffffffffffff1673ffffffffffffffffffffffffffffffffffffffff168152602001908152602001600020600001600081548092919061085190611e12565b919050555060006003600085815260200190815260200160002060006101000a81548173ffffffffffffffffffffffffffffffffffffffff021916908373ffffffffffffffffffffffffffffffffffffffff1602179055507f000000000000000000000000000000000000000000000000000000000000000073ffffffffffffffffffffffffffffffffffffffff166323b872dd3033866040518463ffffffff1660e01b815260040161090693929190611e3b565b600060405180830381600087803b15801561092057600080fd5b505af1158015610934573d6000803e3d6000fd5b5050505042600260003373ffffffffffffffffffffffffffffffffffffffff1673ffffffffffffffffffffffffffffffffffffffff168152602001908152602001600020600201819055505050600160008190555050565b60606000600260008473ffffffffffffffffffffffffffffffffffffffff1673ffffffffffffffffffffffffffffffffffffffff168152602001908152602001600020600001541115610c95576000600260008473ffffffffffffffffffffffffffffffffffffffff1673ffffffffffffffffffffffffffffffffffffffff1681526020019081526020016000206000015467ffffffffffffffff811115610a3757610a36611e72565b5b604051908082528060200260200182016040528015610a7057816020015b610a5d6117b9565b815260200190600190039081610a555790505b5090506000805b600260008673ffffffffffffffffffffffffffffffffffffffff1673ffffffffffffffffffffffffffffffffffffffff16815260200190815260200160002060010180549050811015610c8a57600073ffffffffffffffffffffffffffffffffffffffff16600260008773ffffffffffffffffffffffffffffffffffffffff1673ffffffffffffffffffffffffffffffffffffffff1681526020019081526020016000206001018281548110610b3057610b2f611d9b565b5b906000526020600020906002020160000160009054906101000a900473ffffffffffffffffffffffffffffffffffffffff1673ffffffffffffffffffffffffffffffffffffffff1614610c7757600260008673ffffffffffffffffffffffffffffffffffffffff1673ffffffffffffffffffffffffffffffffffffffff1681526020019081526020016000206001018181548110610bd157610bd0611d9b565b5b90600052602060002090600202016040518060400160405290816000820160009054906101000a900473ffffffffffffffffffffffffffffffffffffffff1673ffffffffffffffffffffffffffffffffffffffff1673ffffffffffffffffffffffffffffffffffffffff168152602001600182015481525050838381518110610c5d57610c5c611d9b565b5b60200260200101819052508180610c7390611dca565b9250505b8080610c8290611dca565b915050610a77565b508192505050610ced565b600067ffffffffffffffff811115610cb057610caf611e72565b5b604051908082528060200260200182016040528015610ce957816020015b610cd66117b9565b815260200190600190039081610cce5790505b5090505b919050565b7f000000000000000000000000000000000000000000000000000000000000000081565b60026020528060005260406000206000915090508060000154908060020154908060030154905083565b60036020528060005260406000206000915054906101000a900473ffffffffffffffffffffffffffffffffffffffff1681565b600260005403610db8576040517f08c379a0000000000000000000000000000000000000000000000000000000008152600401610daf90611ca3565b60405180910390fd5b60026000819055506000600260003373ffffffffffffffffffffffffffffffffffffffff1673ffffffffffffffffffffffffffffffffffffffff168152602001908152602001600020600001541115610e73576000610e16336113f8565b905080600260003373ffffffffffffffffffffffffffffffffffffffff1673ffffffffffffffffffffffffffffffffffffffff1681526020019081526020016000206003016000828254610e6a9190611ba6565b92505081905550505b3373ffffffffffffffffffffffffffffffffffffffff167f000000000000000000000000000000000000000000000000000000000000000073ffffffffffffffffffffffffffffffffffffffff16636352211e836040518263ffffffff1660e01b8152600401610ee39190611b5c565b602060405180830381865afa158015610f00573d6000803e3d6000fd5b505050506040513d601f19601f82011682018060405250810190610f249190611eb6565b73ffffffffffffffffffffffffffffffffffffffff1614610f7a576040517f08c379a0000000000000000000000000000000000000000000000000000000008152600401610f7190611d7b565b60405180910390fd5b7f000000000000000000000000000000000000000000000000000000000000000073ffffffffffffffffffffffffffffffffffffffff166323b872dd3330846040518463ffffffff1660e01b8152600401610fd793929190611e3b565b600060405180830381600087803b158015610ff157600080fd5b505af1158015611005573d6000803e3d6000fd5b50505050600060405180604001604052803373ffffffffffffffffffffffffffffffffffffffff168152602001838152509050600260003373ffffffffffffffffffffffffffffffffffffffff1673ffffffffffffffffffffffffffffffffffffffff16815260200190815260200160002060010181908060018154018082558091505060019003906000526020600020906002020160009091909190915060008201518160000160006101000a81548173ffffffffffffffffffffffffffffffffffffffff021916908373ffffffffffffffffffffffffffffffffffffffff160217905550602082015181600101555050600260003373ffffffffffffffffffffffffffffffffffffffff1673ffffffffffffffffffffffffffffffffffffffff168152602001908152602001600020600001600081548092919061114a90611dca565b9190505550336003600084815260200190815260200160002060006101000a81548173ffffffffffffffffffffffffffffffffffffffff021916908373ffffffffffffffffffffffffffffffffffffffff16021790555042600260003373ffffffffffffffffffffffffffffffffffffffff1673ffffffffffffffffffffffffffffffffffffffff1681526020019081526020016000206002018190555050600160008190555050565b600080600260008473ffffffffffffffffffffffffffffffffffffffff1673ffffffffffffffffffffffffffffffffffffffff16815260200190815260200160002060030154611243846113f8565b61124d9190611ba6565b905080915050919050565b60003373ffffffffffffffffffffffffffffffffffffffff167f000000000000000000000000000000000000000000000000000000000000000073ffffffffffffffffffffffffffffffffffffffff1663081812fc846040518263ffffffff1660e01b81526004016112ca9190611b5c565b602060405180830381865afa1580156112e7573d6000803e3d6000fd5b505050506040513d601f19601f8201168201806040525081019061130b9190611eb6565b73ffffffffffffffffffffffffffffffffffffffff1614806113f157503373ffffffffffffffffffffffffffffffffffffffff167f000000000000000000000000000000000000000000000000000000000000000073ffffffffffffffffffffffffffffffffffffffff16636352211e846040518263ffffffff1660e01b81526004016113989190611b5c565b602060405180830381865afa1580156113b5573d6000803e3d6000fd5b505050506040513d601f19601f820116820180604052508101906113d99190611eb6565b73ffffffffffffffffffffffffffffffffffffffff16145b9050919050565b6000610e10600154600260008573ffffffffffffffffffffffffffffffffffffffff1673ffffffffffffffffffffffffffffffffffffffff16815260200190815260200160002060000154600260008673ffffffffffffffffffffffffffffffffffffffff1673ffffffffffffffffffffffffffffffffffffffff16815260200190815260200160002060020154426114919190611ee3565b61149b9190611f17565b6114a59190611f17565b6114af9190611f88565b9050919050565b6115378363a9059cbb60e01b84846040516024016114d5929190611fb9565b604051602081830303815290604052907bffffffffffffffffffffffffffffffffffffffffffffffffffffffff19166020820180517bffffffffffffffffffffffffffffffffffffffffffffffffffffffff838183161783525050505061153c565b505050565b600061159e826040518060400160405280602081526020017f5361666545524332303a206c6f772d6c6576656c2063616c6c206661696c65648152508573ffffffffffffffffffffffffffffffffffffffff166116039092919063ffffffff16565b90506000815111156115fe57808060200190518101906115be919061201a565b6115fd576040517f08c379a00000000000000000000000000000000000000000000000000000000081526004016115f4906120b9565b60405180910390fd5b5b505050565b6060611612848460008561161b565b90509392505050565b606082471015611660576040517f08c379a00000000000000000000000000000000000000000000000000000000081526004016116579061214b565b60405180910390fd5b6116698561172f565b6116a8576040517f08c379a000000000000000000000000000000000000000000000000000000000815260040161169f906121b7565b60405180910390fd5b6000808673ffffffffffffffffffffffffffffffffffffffff1685876040516116d19190612248565b60006040518083038185875af1925050503d806000811461170e576040519150601f19603f3d011682016040523d82523d6000602084013e611713565b606091505b5091509150611723828286611752565b92505050949350505050565b6000808273ffffffffffffffffffffffffffffffffffffffff163b119050919050565b60608315611762578290506117b2565b6000835111156117755782518084602001fd5b816040517f08c379a00000000000000000000000000000000000000000000000000000000081526004016117a991906122b4565b60405180910390fd5b9392505050565b6040518060400160405280600073ffffffffffffffffffffffffffffffffffffffff168152602001600081525090565b600080fd5b6000819050919050565b611801816117ee565b811461180c57600080fd5b50565b60008135905061181e816117f8565b92915050565b60006020828403121561183a576118396117e9565b5b60006118488482850161180f565b91505092915050565b600073ffffffffffffffffffffffffffffffffffffffff82169050919050565b6000819050919050565b600061189661189161188c84611851565b611871565b611851565b9050919050565b60006118a88261187b565b9050919050565b60006118ba8261189d565b9050919050565b6118ca816118af565b82525050565b60006020820190506118e560008301846118c1565b92915050565b60006118f68261189d565b9050919050565b611906816118eb565b82525050565b600060208201905061192160008301846118fd565b92915050565b600061193282611851565b9050919050565b61194281611927565b811461194d57600080fd5b50565b60008135905061195f81611939565b92915050565b60006020828403121561197b5761197a6117e9565b5b600061198984828501611950565b91505092915050565b600081519050919050565b600082825260208201905092915050565b6000819050602082019050919050565b6119c781611927565b82525050565b6119d6816117ee565b82525050565b6040820160008201516119f260008501826119be565b506020820151611a0560208501826119cd565b50505050565b6000611a1783836119dc565b60408301905092915050565b6000602082019050919050565b6000611a3b82611992565b611a45818561199d565b9350611a50836119ae565b8060005b83811015611a81578151611a688882611a0b565b9750611a7383611a23565b925050600181019050611a54565b5085935050505092915050565b60006020820190508181036000830152611aa88184611a30565b905092915050565b6000611abb8261189d565b9050919050565b611acb81611ab0565b82525050565b6000602082019050611ae66000830184611ac2565b92915050565b611af5816117ee565b82525050565b6000606082019050611b106000830186611aec565b611b1d6020830185611aec565b611b2a6040830184611aec565b949350505050565b611b3b81611927565b82525050565b6000602082019050611b566000830184611b32565b92915050565b6000602082019050611b716000830184611aec565b92915050565b7f4e487b7100000000000000000000000000000000000000000000000000000000600052601160045260246000fd5b6000611bb1826117ee565b9150611bbc836117ee565b9250828201905080821115611bd457611bd3611b77565b5b92915050565b600082825260208201905092915050565b7f596f752068617665206e6f207265776172647320746f20636c61696d00000000600082015250565b6000611c21601c83611bda565b9150611c2c82611beb565b602082019050919050565b60006020820190508181036000830152611c5081611c14565b9050919050565b7f5265656e7472616e637947756172643a207265656e7472616e742063616c6c00600082015250565b6000611c8d601f83611bda565b9150611c9882611c57565b602082019050919050565b60006020820190508181036000830152611cbc81611c80565b9050919050565b7f596f752068617665206e6f20746f6b656e73207374616b656400000000000000600082015250565b6000611cf9601983611bda565b9150611d0482611cc3565b602082019050919050565b60006020820190508181036000830152611d2881611cec565b9050919050565b7f596f7520646f6e2774206f776e207468697320746f6b656e2100000000000000600082015250565b6000611d65601983611bda565b9150611d7082611d2f565b602082019050919050565b60006020820190508181036000830152611d9481611d58565b9050919050565b7f4e487b7100000000000000000000000000000000000000000000000000000000600052603260045260246000fd5b6000611dd5826117ee565b91507fffffffffffffffffffffffffffffffffffffffffffffffffffffffffffffffff8203611e0757611e06611b77565b5b600182019050919050565b6000611e1d826117ee565b915060008203611e3057611e2f611b77565b5b600182039050919050565b6000606082019050611e506000830186611b32565b611e5d6020830185611b32565b611e6a6040830184611aec565b949350505050565b7f4e487b7100000000000000000000000000000000000000000000000000000000600052604160045260246000fd5b600081519050611eb081611939565b92915050565b600060208284031215611ecc57611ecb6117e9565b5b6000611eda84828501611ea1565b91505092915050565b6000611eee826117ee565b9150611ef9836117ee565b9250828203905081811115611f1157611f10611b77565b5b92915050565b6000611f22826117ee565b9150611f2d836117ee565b9250828202611f3b816117ee565b91508282048414831517611f5257611f51611b77565b5b5092915050565b7f4e487b7100000000000000000000000000000000000000000000000000000000600052601260045260246000fd5b6000611f93826117ee565b9150611f9e836117ee565b925082611fae57611fad611f59565b5b828204905092915050565b6000604082019050611fce6000830185611b32565b611fdb6020830184611aec565b9392505050565b60008115159050919050565b611ff781611fe2565b811461200257600080fd5b50565b60008151905061201481611fee565b92915050565b6000602082840312156120305761202f6117e9565b5b600061203e84828501612005565b91505092915050565b7f5361666545524332303a204552433230206f7065726174696f6e20646964206e60008201527f6f74207375636365656400000000000000000000000000000000000000000000602082015250565b60006120a3602a83611bda565b91506120ae82612047565b604082019050919050565b600060208201905081810360008301526120d281612096565b9050919050565b7f416464726573733a20696e73756666696369656e742062616c616e636520666f60008201527f722063616c6c0000000000000000000000000000000000000000000000000000602082015250565b6000612135602683611bda565b9150612140826120d9565b604082019050919050565b6000602082019050818103600083015261216481612128565b9050919050565b7f416464726573733a2063616c6c20746f206e6f6e2d636f6e7472616374000000600082015250565b60006121a1601d83611bda565b91506121ac8261216b565b602082019050919050565b600060208201905081810360008301526121d081612194565b9050919050565b600081519050919050565b600081905092915050565b60005b8381101561220b5780820151818401526020810190506121f0565b60008484015250505050565b6000612222826121d7565b61222c81856121e2565b935061223c8185602086016121ed565b80840191505092915050565b60006122548284612217565b915081905092915050565b600081519050919050565b6000601f19601f8301169050919050565b60006122868261225f565b6122908185611bda565b93506122a08185602086016121ed565b6122a98161226a565b840191505092915050565b600060208201905081810360008301526122ce818461227b565b90509291505056fea26469706673582212201ae52d714f5d9d1f7432c0841ef01fd5a10d4baf7b2cf2b2e3286b3ba3cb714264736f6c63430008110033",
  "devdoc": {
    "kind": "dev",
    "methods": {},
    "version": 1
  },
  "userdoc": {
    "kind": "user",
    "methods": {},
    "version": 1
  },
  "storageLayout": {
    "storage": [
      {
        "astId": 145,
        "contract": "contracts/core/Staking.sol:Staking",
        "label": "_status",
        "offset": 0,
        "slot": "0",
        "type": "t_uint256"
      },
      {
        "astId": 5703,
        "contract": "contracts/core/Staking.sol:Staking",
        "label": "rewardsPerHour",
        "offset": 0,
        "slot": "1",
        "type": "t_uint256"
      },
      {
        "astId": 5708,
        "contract": "contracts/core/Staking.sol:Staking",
        "label": "stakers",
        "offset": 0,
        "slot": "2",
        "type": "t_mapping(t_address,t_struct(Staker)5700_storage)"
      },
      {
        "astId": 5712,
        "contract": "contracts/core/Staking.sol:Staking",
        "label": "stakerAddress",
        "offset": 0,
        "slot": "3",
        "type": "t_mapping(t_uint256,t_address)"
      }
    ],
    "types": {
      "t_address": {
        "encoding": "inplace",
        "label": "address",
        "numberOfBytes": "20"
      },
      "t_array(t_struct(StakedToken)5689_storage)dyn_storage": {
        "base": "t_struct(StakedToken)5689_storage",
        "encoding": "dynamic_array",
        "label": "struct Staking.StakedToken[]",
        "numberOfBytes": "32"
      },
      "t_mapping(t_address,t_struct(Staker)5700_storage)": {
        "encoding": "mapping",
        "key": "t_address",
        "label": "mapping(address => struct Staking.Staker)",
        "numberOfBytes": "32",
        "value": "t_struct(Staker)5700_storage"
      },
      "t_mapping(t_uint256,t_address)": {
        "encoding": "mapping",
        "key": "t_uint256",
        "label": "mapping(uint256 => address)",
        "numberOfBytes": "32",
        "value": "t_address"
      },
      "t_struct(StakedToken)5689_storage": {
        "encoding": "inplace",
        "label": "struct Staking.StakedToken",
        "members": [
          {
            "astId": 5686,
            "contract": "contracts/core/Staking.sol:Staking",
            "label": "staker",
            "offset": 0,
            "slot": "0",
            "type": "t_address"
          },
          {
            "astId": 5688,
            "contract": "contracts/core/Staking.sol:Staking",
            "label": "tokenId",
            "offset": 0,
            "slot": "1",
            "type": "t_uint256"
          }
        ],
        "numberOfBytes": "64"
      },
      "t_struct(Staker)5700_storage": {
        "encoding": "inplace",
        "label": "struct Staking.Staker",
        "members": [
          {
            "astId": 5691,
            "contract": "contracts/core/Staking.sol:Staking",
            "label": "amountStaked",
            "offset": 0,
            "slot": "0",
            "type": "t_uint256"
          },
          {
            "astId": 5695,
            "contract": "contracts/core/Staking.sol:Staking",
            "label": "stakedTokens",
            "offset": 0,
            "slot": "1",
            "type": "t_array(t_struct(StakedToken)5689_storage)dyn_storage"
          },
          {
            "astId": 5697,
            "contract": "contracts/core/Staking.sol:Staking",
            "label": "timeOfLastUpdate",
            "offset": 0,
            "slot": "2",
            "type": "t_uint256"
          },
          {
            "astId": 5699,
            "contract": "contracts/core/Staking.sol:Staking",
            "label": "unclaimedRewards",
            "offset": 0,
            "slot": "3",
            "type": "t_uint256"
          }
        ],
        "numberOfBytes": "128"
      },
      "t_uint256": {
        "encoding": "inplace",
        "label": "uint256",
        "numberOfBytes": "32"
      }
    }
  }
}