{
  "address": "0x5FbDB2315678afecb367f032d93F642f64180aa3",
  "abi": [
    {
      "inputs": [
        {
          "internalType": "uint256",
          "name": "",
          "type": "uint256"
        }
      ],
      "name": "appearance",
      "outputs": [
        {
          "internalType": "bytes32",
          "name": "body",
          "type": "bytes32"
        },
        {
          "internalType": "bytes32",
          "name": "clothes",
          "type": "bytes32"
        },
        {
          "internalType": "bytes32",
          "name": "ear",
          "type": "bytes32"
        },
        {
          "internalType": "bytes32",
          "name": "eyes",
          "type": "bytes32"
        },
        {
          "internalType": "bytes32",
          "name": "hair",
          "type": "bytes32"
        },
        {
          "internalType": "bytes32",
          "name": "hat",
          "type": "bytes32"
        },
        {
          "internalType": "bytes32",
          "name": "mouth",
          "type": "bytes32"
        },
        {
          "internalType": "bytes32",
          "name": "pants",
          "type": "bytes32"
        }
      ],
      "stateMutability": "view",
      "type": "function"
    },
    {
      "inputs": [
        {
          "internalType": "uint256",
          "name": "",
          "type": "uint256"
        }
      ],
      "name": "character_created",
      "outputs": [
        {
          "internalType": "bool",
          "name": "",
          "type": "bool"
        }
      ],
      "stateMutability": "view",
      "type": "function"
    },
    {
      "inputs": [
        {
          "internalType": "uint256",
          "name": "",
          "type": "uint256"
        }
      ],
      "name": "level_points_spent",
      "outputs": [
        {
          "internalType": "uint256",
          "name": "",
          "type": "uint256"
        }
      ],
      "stateMutability": "view",
      "type": "function"
    }
  ],
  "transactionHash": "0xeef3d96187cc1d485cb3b23ee1871ec14417b217a3550c0f7df2a9719eb9d496",
  "args": [],
  "numDeployments": 1,
  "solcInputHash": "eaf2e0a4457f02bb2a2468c921c595ab",
  "bytecode": "0x608060405234801561001057600080fd5b506102f2806100206000396000f3fe608060405234801561001057600080fd5b50600436106100415760003560e01c8063849ada7414610046578063ec2356cd14610076578063f8955432146100ad575b600080fd5b610060600480360381019061005b9190610198565b6100dd565b60405161006d91906101d4565b60405180910390f35b610090600480360381019061008b9190610198565b6100f5565b6040516100a4989796959493929190610208565b60405180910390f35b6100c760048036038101906100c29190610198565b61013d565b6040516100d491906102a1565b60405180910390f35b60016020528060005260406000206000915090505481565b60006020528060005260406000206000915090508060000154908060010154908060020154908060030154908060040154908060050154908060060154908060070154905088565b60026020528060005260406000206000915054906101000a900460ff1681565b600080fd5b6000819050919050565b61017581610162565b811461018057600080fd5b50565b6000813590506101928161016c565b92915050565b6000602082840312156101ae576101ad61015d565b5b60006101bc84828501610183565b91505092915050565b6101ce81610162565b82525050565b60006020820190506101e960008301846101c5565b92915050565b6000819050919050565b610202816101ef565b82525050565b60006101008201905061021e600083018b6101f9565b61022b602083018a6101f9565b61023860408301896101f9565b61024560608301886101f9565b61025260808301876101f9565b61025f60a08301866101f9565b61026c60c08301856101f9565b61027960e08301846101f9565b9998505050505050505050565b60008115159050919050565b61029b81610286565b82525050565b60006020820190506102b66000830184610292565b9291505056fea26469706673582212204c2599b3b22e6d7083bfaa3718eb8fa2de0caf3c15bf32c6ba0fe43c8eb42d0464736f6c63430008110033",
  "devdoc": {
    "kind": "dev",
    "methods": {},
    "version": 1
  },
  "userdoc": {
    "kind": "user",
    "methods": {},
    "version": 1
  },
  "storageLayout": {
    "storage": [
      {
        "astId": 2529,
        "contract": "contracts/core/BaseAttributes.sol:BaseAttributes",
        "label": "appearance",
        "offset": 0,
        "slot": "0",
        "type": "t_mapping(t_uint256,t_struct(Appearance)2524_storage)"
      },
      {
        "astId": 2533,
        "contract": "contracts/core/BaseAttributes.sol:BaseAttributes",
        "label": "level_points_spent",
        "offset": 0,
        "slot": "1",
        "type": "t_mapping(t_uint256,t_uint256)"
      },
      {
        "astId": 2537,
        "contract": "contracts/core/BaseAttributes.sol:BaseAttributes",
        "label": "character_created",
        "offset": 0,
        "slot": "2",
        "type": "t_mapping(t_uint256,t_bool)"
      }
    ],
    "types": {
      "t_bool": {
        "encoding": "inplace",
        "label": "bool",
        "numberOfBytes": "1"
      },
      "t_bytes32": {
        "encoding": "inplace",
        "label": "bytes32",
        "numberOfBytes": "32"
      },
      "t_mapping(t_uint256,t_bool)": {
        "encoding": "mapping",
        "key": "t_uint256",
        "label": "mapping(uint256 => bool)",
        "numberOfBytes": "32",
        "value": "t_bool"
      },
      "t_mapping(t_uint256,t_struct(Appearance)2524_storage)": {
        "encoding": "mapping",
        "key": "t_uint256",
        "label": "mapping(uint256 => struct BaseAttributes.Appearance)",
        "numberOfBytes": "32",
        "value": "t_struct(Appearance)2524_storage"
      },
      "t_mapping(t_uint256,t_uint256)": {
        "encoding": "mapping",
        "key": "t_uint256",
        "label": "mapping(uint256 => uint256)",
        "numberOfBytes": "32",
        "value": "t_uint256"
      },
      "t_struct(Appearance)2524_storage": {
        "encoding": "inplace",
        "label": "struct BaseAttributes.Appearance",
        "members": [
          {
            "astId": 2509,
            "contract": "contracts/core/BaseAttributes.sol:BaseAttributes",
            "label": "body",
            "offset": 0,
            "slot": "0",
            "type": "t_bytes32"
          },
          {
            "astId": 2511,
            "contract": "contracts/core/BaseAttributes.sol:BaseAttributes",
            "label": "clothes",
            "offset": 0,
            "slot": "1",
            "type": "t_bytes32"
          },
          {
            "astId": 2513,
            "contract": "contracts/core/BaseAttributes.sol:BaseAttributes",
            "label": "ear",
            "offset": 0,
            "slot": "2",
            "type": "t_bytes32"
          },
          {
            "astId": 2515,
            "contract": "contracts/core/BaseAttributes.sol:BaseAttributes",
            "label": "eyes",
            "offset": 0,
            "slot": "3",
            "type": "t_bytes32"
          },
          {
            "astId": 2517,
            "contract": "contracts/core/BaseAttributes.sol:BaseAttributes",
            "label": "hair",
            "offset": 0,
            "slot": "4",
            "type": "t_bytes32"
          },
          {
            "astId": 2519,
            "contract": "contracts/core/BaseAttributes.sol:BaseAttributes",
            "label": "hat",
            "offset": 0,
            "slot": "5",
            "type": "t_bytes32"
          },
          {
            "astId": 2521,
            "contract": "contracts/core/BaseAttributes.sol:BaseAttributes",
            "label": "mouth",
            "offset": 0,
            "slot": "6",
            "type": "t_bytes32"
          },
          {
            "astId": 2523,
            "contract": "contracts/core/BaseAttributes.sol:BaseAttributes",
            "label": "pants",
            "offset": 0,
            "slot": "7",
            "type": "t_bytes32"
          }
        ],
        "numberOfBytes": "256"
      },
      "t_uint256": {
        "encoding": "inplace",
        "label": "uint256",
        "numberOfBytes": "32"
      }
    }
  }
}