{
  "address": "0xc6e7DF5E7b4f2A278906862b61205850344D4e7d",
  "abi": [
    {
      "inputs": [],
      "stateMutability": "nonpayable",
      "type": "constructor"
    },
    {
      "anonymous": false,
      "inputs": [
        {
          "indexed": true,
          "internalType": "address",
          "name": "owner",
          "type": "address"
        },
        {
          "indexed": true,
          "internalType": "address",
          "name": "approved",
          "type": "address"
        },
        {
          "indexed": true,
          "internalType": "uint256",
          "name": "tokenId",
          "type": "uint256"
        }
      ],
      "name": "Approval",
      "type": "event"
    },
    {
      "anonymous": false,
      "inputs": [
        {
          "indexed": true,
          "internalType": "address",
          "name": "owner",
          "type": "address"
        },
        {
          "indexed": true,
          "internalType": "address",
          "name": "operator",
          "type": "address"
        },
        {
          "indexed": false,
          "internalType": "bool",
          "name": "approved",
          "type": "bool"
        }
      ],
      "name": "ApprovalForAll",
      "type": "event"
    },
    {
      "anonymous": false,
      "inputs": [
        {
          "indexed": true,
          "internalType": "address",
          "name": "from",
          "type": "address"
        },
        {
          "indexed": true,
          "internalType": "address",
          "name": "to",
          "type": "address"
        },
        {
          "indexed": true,
          "internalType": "uint256",
          "name": "tokenId",
          "type": "uint256"
        }
      ],
      "name": "Transfer",
      "type": "event"
    },
    {
      "anonymous": false,
      "inputs": [
        {
          "indexed": true,
          "internalType": "address",
          "name": "owner",
          "type": "address"
        },
        {
          "indexed": false,
          "internalType": "uint256",
          "name": "level",
          "type": "uint256"
        },
        {
          "indexed": false,
          "internalType": "uint256",
          "name": "summoner",
          "type": "uint256"
        }
      ],
      "name": "leveled",
      "type": "event"
    },
    {
      "anonymous": false,
      "inputs": [
        {
          "indexed": true,
          "internalType": "address",
          "name": "owner",
          "type": "address"
        },
        {
          "indexed": false,
          "internalType": "uint256",
          "name": "name",
          "type": "uint256"
        },
        {
          "indexed": false,
          "internalType": "uint256",
          "name": "summoner",
          "type": "uint256"
        }
      ],
      "name": "named",
      "type": "event"
    },
    {
      "anonymous": false,
      "inputs": [
        {
          "indexed": true,
          "internalType": "address",
          "name": "owner",
          "type": "address"
        },
        {
          "indexed": false,
          "internalType": "uint256",
          "name": "summoner",
          "type": "uint256"
        }
      ],
      "name": "summoned",
      "type": "event"
    },
    {
      "inputs": [
        {
          "internalType": "address",
          "name": "to",
          "type": "address"
        },
        {
          "internalType": "uint256",
          "name": "tokenId",
          "type": "uint256"
        }
      ],
      "name": "approve",
      "outputs": [],
      "stateMutability": "nonpayable",
      "type": "function"
    },
    {
      "inputs": [
        {
          "internalType": "address",
          "name": "owner",
          "type": "address"
        }
      ],
      "name": "balanceOf",
      "outputs": [
        {
          "internalType": "uint256",
          "name": "",
          "type": "uint256"
        }
      ],
      "stateMutability": "view",
      "type": "function"
    },
    {
      "inputs": [
        {
          "internalType": "uint256",
          "name": "_summoner",
          "type": "uint256"
        },
        {
          "internalType": "string",
          "name": "_name",
          "type": "string"
        }
      ],
      "name": "change_name",
      "outputs": [],
      "stateMutability": "nonpayable",
      "type": "function"
    },
    {
      "inputs": [
        {
          "internalType": "uint256",
          "name": "tokenId",
          "type": "uint256"
        }
      ],
      "name": "getApproved",
      "outputs": [
        {
          "internalType": "address",
          "name": "",
          "type": "address"
        }
      ],
      "stateMutability": "view",
      "type": "function"
    },
    {
      "inputs": [
        {
          "internalType": "address",
          "name": "owner",
          "type": "address"
        },
        {
          "internalType": "address",
          "name": "operator",
          "type": "address"
        }
      ],
      "name": "isApprovedForAll",
      "outputs": [
        {
          "internalType": "bool",
          "name": "",
          "type": "bool"
        }
      ],
      "stateMutability": "view",
      "type": "function"
    },
    {
      "inputs": [
        {
          "internalType": "uint256",
          "name": "",
          "type": "uint256"
        }
      ],
      "name": "level",
      "outputs": [
        {
          "internalType": "uint256",
          "name": "",
          "type": "uint256"
        }
      ],
      "stateMutability": "view",
      "type": "function"
    },
    {
      "inputs": [
        {
          "internalType": "uint256",
          "name": "_summoner",
          "type": "uint256"
        }
      ],
      "name": "level_up",
      "outputs": [],
      "stateMutability": "nonpayable",
      "type": "function"
    },
    {
      "inputs": [
        {
          "internalType": "uint256",
          "name": "",
          "type": "uint256"
        }
      ],
      "name": "name",
      "outputs": [
        {
          "internalType": "string",
          "name": "",
          "type": "string"
        }
      ],
      "stateMutability": "view",
      "type": "function"
    },
    {
      "inputs": [],
      "name": "name",
      "outputs": [
        {
          "internalType": "string",
          "name": "",
          "type": "string"
        }
      ],
      "stateMutability": "view",
      "type": "function"
    },
    {
      "inputs": [
        {
          "internalType": "uint256",
          "name": "tokenId",
          "type": "uint256"
        }
      ],
      "name": "ownerOf",
      "outputs": [
        {
          "internalType": "address",
          "name": "",
          "type": "address"
        }
      ],
      "stateMutability": "view",
      "type": "function"
    },
    {
      "inputs": [
        {
          "internalType": "address",
          "name": "from",
          "type": "address"
        },
        {
          "internalType": "address",
          "name": "to",
          "type": "address"
        },
        {
          "internalType": "uint256",
          "name": "tokenId",
          "type": "uint256"
        }
      ],
      "name": "safeTransferFrom",
      "outputs": [],
      "stateMutability": "nonpayable",
      "type": "function"
    },
    {
      "inputs": [
        {
          "internalType": "address",
          "name": "from",
          "type": "address"
        },
        {
          "internalType": "address",
          "name": "to",
          "type": "address"
        },
        {
          "internalType": "uint256",
          "name": "tokenId",
          "type": "uint256"
        },
        {
          "internalType": "bytes",
          "name": "data",
          "type": "bytes"
        }
      ],
      "name": "safeTransferFrom",
      "outputs": [],
      "stateMutability": "nonpayable",
      "type": "function"
    },
    {
      "inputs": [
        {
          "internalType": "address",
          "name": "operator",
          "type": "address"
        },
        {
          "internalType": "bool",
          "name": "approved",
          "type": "bool"
        }
      ],
      "name": "setApprovalForAll",
      "outputs": [],
      "stateMutability": "nonpayable",
      "type": "function"
    },
    {
      "inputs": [
        {
          "internalType": "uint256",
          "name": "_summoner",
          "type": "uint256"
        },
        {
          "internalType": "uint256",
          "name": "_xp",
          "type": "uint256"
        }
      ],
      "name": "spend_xp",
      "outputs": [],
      "stateMutability": "nonpayable",
      "type": "function"
    },
    {
      "inputs": [],
      "name": "summon",
      "outputs": [],
      "stateMutability": "nonpayable",
      "type": "function"
    },
    {
      "inputs": [
        {
          "internalType": "bytes4",
          "name": "interfaceId",
          "type": "bytes4"
        }
      ],
      "name": "supportsInterface",
      "outputs": [
        {
          "internalType": "bool",
          "name": "",
          "type": "bool"
        }
      ],
      "stateMutability": "view",
      "type": "function"
    },
    {
      "inputs": [],
      "name": "symbol",
      "outputs": [
        {
          "internalType": "string",
          "name": "",
          "type": "string"
        }
      ],
      "stateMutability": "view",
      "type": "function"
    },
    {
      "inputs": [
        {
          "internalType": "uint256",
          "name": "tokenId",
          "type": "uint256"
        }
      ],
      "name": "tokenURI",
      "outputs": [
        {
          "internalType": "string",
          "name": "",
          "type": "string"
        }
      ],
      "stateMutability": "view",
      "type": "function"
    },
    {
      "inputs": [
        {
          "internalType": "address",
          "name": "from",
          "type": "address"
        },
        {
          "internalType": "address",
          "name": "to",
          "type": "address"
        },
        {
          "internalType": "uint256",
          "name": "tokenId",
          "type": "uint256"
        }
      ],
      "name": "transferFrom",
      "outputs": [],
      "stateMutability": "nonpayable",
      "type": "function"
    },
    {
      "inputs": [
        {
          "internalType": "uint256",
          "name": "",
          "type": "uint256"
        }
      ],
      "name": "xp",
      "outputs": [
        {
          "internalType": "uint256",
          "name": "",
          "type": "uint256"
        }
      ],
      "stateMutability": "view",
      "type": "function"
    },
    {
      "inputs": [
        {
          "internalType": "uint256",
          "name": "curent_level",
          "type": "uint256"
        }
      ],
      "name": "xp_required",
      "outputs": [
        {
          "internalType": "uint256",
          "name": "xp_to_next_level",
          "type": "uint256"
        }
      ],
      "stateMutability": "pure",
      "type": "function"
    }
  ],
  "transactionHash": "0x684e21385ae41081fe9484d28d2649e29f10447df1ee04193a5888d800f29e9c",
  "args": [],
  "numDeployments": 1,
  "solcInputHash": "d26e5f205c9b9c65669421ce046c00e8",
  "bytecode": "0x60806040523480156200001157600080fd5b506040518060400160405280600981526020017f43686172616374657200000000000000000000000000000000000000000000008152506040518060400160405280600681526020017f48554e544552000000000000000000000000000000000000000000000000000081525081600090816200008f919062000324565b508060019081620000a1919062000324565b5050506200040b565b600081519050919050565b7f4e487b7100000000000000000000000000000000000000000000000000000000600052604160045260246000fd5b7f4e487b7100000000000000000000000000000000000000000000000000000000600052602260045260246000fd5b600060028204905060018216806200012c57607f821691505b602082108103620001425762000141620000e4565b5b50919050565b60008190508160005260206000209050919050565b60006020601f8301049050919050565b600082821b905092915050565b600060088302620001ac7fffffffffffffffffffffffffffffffffffffffffffffffffffffffffffffffff826200016d565b620001b886836200016d565b95508019841693508086168417925050509392505050565b6000819050919050565b6000819050919050565b600062000205620001ff620001f984620001d0565b620001da565b620001d0565b9050919050565b6000819050919050565b6200022183620001e4565b6200023962000230826200020c565b8484546200017a565b825550505050565b600090565b6200025062000241565b6200025d81848462000216565b505050565b5b8181101562000285576200027960008262000246565b60018101905062000263565b5050565b601f821115620002d4576200029e8162000148565b620002a9846200015d565b81016020851015620002b9578190505b620002d1620002c8856200015d565b83018262000262565b50505b505050565b600082821c905092915050565b6000620002f960001984600802620002d9565b1980831691505092915050565b6000620003148383620002e6565b9150826002028217905092915050565b6200032f82620000aa565b67ffffffffffffffff8111156200034b576200034a620000b5565b5b62000357825462000113565b6200036482828562000289565b600060209050601f8311600181146200039c576000841562000387578287015190505b62000393858262000306565b86555062000403565b601f198416620003ac8662000148565b60005b82811015620003d657848901518255600182019150602085019450602081019050620003af565b86831015620003f65784890151620003f2601f891682620002e6565b8355505b6001600288020188555050505b505050505050565b613365806200041b6000396000f3fe608060405234801561001057600080fd5b50600436106101365760003560e01c806370a08231116100b8578063aca10be31161007c578063aca10be31461035d578063b88d4fde1461038d578063c87b56dd146103a9578063e51c4ecc146103d9578063e58410bb146103f5578063e985e9c51461041157610136565b806370a08231146102a757806390249448146102d757806394b69ffa146102f357806395d89b4114610323578063a22cb4651461034157610136565b8063095ea7b3116100ff578063095ea7b31461021957806323b872dd14610235578063363dd19e1461025157806342842e0e1461025b5780636352211e1461027757610136565b8062ad800c1461013b57806301ffc9a71461016b57806305c58df21461019b57806306fdde03146101cb578063081812fc146101e9575b600080fd5b61015560048036038101906101509190611fa8565b610441565b6040516101629190612065565b60405180910390f35b610185600480360381019061018091906120df565b6104e1565b6040516101929190612127565b60405180910390f35b6101b560048036038101906101b09190611fa8565b6105c3565b6040516101c29190612151565b60405180910390f35b6101d36105db565b6040516101e09190612065565b60405180910390f35b61020360048036038101906101fe9190611fa8565b61066d565b60405161021091906121ad565b60405180910390f35b610233600480360381019061022e91906121f4565b6106b3565b005b61024f600480360381019061024a9190612234565b6107ca565b005b61025961082a565b005b61027560048036038101906102709190612234565b6109ca565b005b610291600480360381019061028c9190611fa8565b6109ea565b60405161029e91906121ad565b60405180910390f35b6102c160048036038101906102bc9190612287565b610a9b565b6040516102ce9190612151565b60405180910390f35b6102f160048036038101906102ec9190611fa8565b610b52565b005b61030d60048036038101906103089190611fa8565b610c40565b60405161031a9190612151565b60405180910390f35b61032b610c58565b6040516103389190612065565b60405180910390f35b61035b600480360381019061035691906122e0565b610cea565b005b61037760048036038101906103729190611fa8565b610d00565b6040516103849190612151565b60405180910390f35b6103a760048036038101906103a29190612455565b610d63565b005b6103c360048036038101906103be9190611fa8565b610dc5565b6040516103d09190612065565b60405180910390f35b6103f360048036038101906103ee9190612579565b610ed7565b005b61040f600480360381019061040a91906125d5565b610f72565b005b61042b60048036038101906104269190612615565b610fb3565b6040516104389190612127565b60405180910390f35b6009602052806000526040600020600091509050805461046090612684565b80601f016020809104026020016040519081016040528092919081815260200182805461048c90612684565b80156104d95780601f106104ae576101008083540402835291602001916104d9565b820191906000526020600020905b8154815290600101906020018083116104bc57829003601f168201915b505050505081565b60007f80ac58cd000000000000000000000000000000000000000000000000000000007bffffffffffffffffffffffffffffffffffffffffffffffffffffffff1916827bffffffffffffffffffffffffffffffffffffffffffffffffffffffff191614806105ac57507f5b5e139f000000000000000000000000000000000000000000000000000000007bffffffffffffffffffffffffffffffffffffffffffffffffffffffff1916827bffffffffffffffffffffffffffffffffffffffffffffffffffffffff1916145b806105bc57506105bb82611047565b5b9050919050565b600a6020528060005260406000206000915090505481565b6060600080546105ea90612684565b80601f016020809104026020016040519081016040528092919081815260200182805461061690612684565b80156106635780601f1061063857610100808354040283529160200191610663565b820191906000526020600020905b81548152906001019060200180831161064657829003601f168201915b5050505050905090565b6000610678826110b1565b6004600083815260200190815260200160002060009054906101000a900473ffffffffffffffffffffffffffffffffffffffff169050919050565b60006106be826109ea565b90508073ffffffffffffffffffffffffffffffffffffffff168373ffffffffffffffffffffffffffffffffffffffff160361072e576040517f08c379a000000000000000000000000000000000000000000000000000000000815260040161072590612727565b60405180910390fd5b8073ffffffffffffffffffffffffffffffffffffffff1661074d6110fc565b73ffffffffffffffffffffffffffffffffffffffff16148061077c575061077b816107766110fc565b610fb3565b5b6107bb576040517f08c379a00000000000000000000000000000000000000000000000000000000081526004016107b2906127b9565b60405180910390fd5b6107c58383611104565b505050565b6107db6107d56110fc565b826111bd565b61081a576040517f08c379a00000000000000000000000000000000000000000000000000000000081526004016108119061284b565b60405180910390fd5b610825838383611252565b505050565b60001515600860003373ffffffffffffffffffffffffffffffffffffffff1673ffffffffffffffffffffffffffffffffffffffff16815260200190815260200160002060009054906101000a900460ff161515146108bd576040517f08c379a00000000000000000000000000000000000000000000000000000000081526004016108b4906128b7565b60405180910390fd5b60006108c960076114b8565b90506108d4336114c6565b6009600083815260200190815260200160002090816108f39190612a83565b506001600a6000838152602001908152602001600020819055506001600860003373ffffffffffffffffffffffffffffffffffffffff1673ffffffffffffffffffffffffffffffffffffffff16815260200190815260200160002060006101000a81548160ff02191690831515021790555061096f33826114f3565b3373ffffffffffffffffffffffffffffffffffffffff167fbbb46266402c42849573c27abc27dd180e2b8ec8f33840ca8b0919227659e399826040516109b59190612151565b60405180910390a26109c76007611511565b50565b6109e583838360405180602001604052806000815250610d63565b505050565b6000806002600084815260200190815260200160002060009054906101000a900473ffffffffffffffffffffffffffffffffffffffff169050600073ffffffffffffffffffffffffffffffffffffffff168173ffffffffffffffffffffffffffffffffffffffff1603610a92576040517f08c379a0000000000000000000000000000000000000000000000000000000008152600401610a8990612ba1565b60405180910390fd5b80915050919050565b60008073ffffffffffffffffffffffffffffffffffffffff168273ffffffffffffffffffffffffffffffffffffffff1603610b0b576040517f08c379a0000000000000000000000000000000000000000000000000000000008152600401610b0290612c33565b60405180910390fd5b600360008373ffffffffffffffffffffffffffffffffffffffff1673ffffffffffffffffffffffffffffffffffffffff168152602001908152602001600020549050919050565b610b5c33826111bd565b610b6557600080fd5b6000600a60008381526020019081526020016000205490506000610b8882610d00565b905080600b60008581526020019081526020016000206000828254610bad9190612c82565b92505081905550600182610bc19190612cb6565b600a6000858152602001908152602001600020819055503373ffffffffffffffffffffffffffffffffffffffff167f943b00a67689342d89989c0bf7b5f4840b8c5a29e1383dc391a903626b3327c0600a60008681526020019081526020016000205485604051610c33929190612cea565b60405180910390a2505050565b600b6020528060005260406000206000915090505481565b606060018054610c6790612684565b80601f0160208091040260200160405190810160405280929190818152602001828054610c9390612684565b8015610ce05780601f10610cb557610100808354040283529160200191610ce0565b820191906000526020600020905b815481529060010190602001808311610cc357829003601f168201915b5050505050905090565b610cfc610cf56110fc565b8383611527565b5050565b6000683635c9adc5dea0000082610d179190612d13565b90506000600190505b82811015610d5d57683635c9adc5dea0000083610d3d9190612d13565b82610d489190612cb6565b91508080610d5590612d55565b915050610d20565b50919050565b610d74610d6e6110fc565b836111bd565b610db3576040517f08c379a0000000000000000000000000000000000000000000000000000000008152600401610daa9061284b565b60405180910390fd5b610dbf84848484611693565b50505050565b6060610dd0826110b1565b6000600660008481526020019081526020016000208054610df090612684565b80601f0160208091040260200160405190810160405280929190818152602001828054610e1c90612684565b8015610e695780601f10610e3e57610100808354040283529160200191610e69565b820191906000526020600020905b815481529060010190602001808311610e4c57829003601f168201915b505050505090506000610e7a6116ef565b90506000815103610e8f578192505050610ed2565b600082511115610ec4578082604051602001610eac929190612dd9565b60405160208183030381529060405292505050610ed2565b610ecd84611706565b925050505b919050565b610ee133836111bd565b610eea57600080fd5b80600960008481526020019081526020016000209081610f0a9190612a83565b503373ffffffffffffffffffffffffffffffffffffffff167f868c181b8c4c8c979246712f8d7022c869a58c0aeda1754222b1ab98a588e2c0600a60008581526020019081526020016000205484604051610f66929190612cea565b60405180910390a25050565b610f7c33836111bd565b610f8557600080fd5b80600b60008481526020019081526020016000206000828254610fa89190612c82565b925050819055505050565b6000600560008473ffffffffffffffffffffffffffffffffffffffff1673ffffffffffffffffffffffffffffffffffffffff16815260200190815260200160002060008373ffffffffffffffffffffffffffffffffffffffff1673ffffffffffffffffffffffffffffffffffffffff16815260200190815260200160002060009054906101000a900460ff16905092915050565b60007f01ffc9a7000000000000000000000000000000000000000000000000000000007bffffffffffffffffffffffffffffffffffffffffffffffffffffffff1916827bffffffffffffffffffffffffffffffffffffffffffffffffffffffff1916149050919050565b6110ba8161176e565b6110f9576040517f08c379a00000000000000000000000000000000000000000000000000000000081526004016110f090612ba1565b60405180910390fd5b50565b600033905090565b816004600083815260200190815260200160002060006101000a81548173ffffffffffffffffffffffffffffffffffffffff021916908373ffffffffffffffffffffffffffffffffffffffff160217905550808273ffffffffffffffffffffffffffffffffffffffff16611177836109ea565b73ffffffffffffffffffffffffffffffffffffffff167f8c5be1e5ebec7d5bd14f71427d1e84f3dd0314c0f7b2291e5b200ac8c7c3b92560405160405180910390a45050565b6000806111c9836109ea565b90508073ffffffffffffffffffffffffffffffffffffffff168473ffffffffffffffffffffffffffffffffffffffff16148061120b575061120a8185610fb3565b5b8061124957508373ffffffffffffffffffffffffffffffffffffffff166112318461066d565b73ffffffffffffffffffffffffffffffffffffffff16145b91505092915050565b8273ffffffffffffffffffffffffffffffffffffffff16611272826109ea565b73ffffffffffffffffffffffffffffffffffffffff16146112c8576040517f08c379a00000000000000000000000000000000000000000000000000000000081526004016112bf90612e6f565b60405180910390fd5b600073ffffffffffffffffffffffffffffffffffffffff168273ffffffffffffffffffffffffffffffffffffffff1603611337576040517f08c379a000000000000000000000000000000000000000000000000000000000815260040161132e90612f01565b60405180910390fd5b6113428383836117da565b61134d600082611104565b6001600360008573ffffffffffffffffffffffffffffffffffffffff1673ffffffffffffffffffffffffffffffffffffffff168152602001908152602001600020600082825461139d9190612c82565b925050819055506001600360008473ffffffffffffffffffffffffffffffffffffffff1673ffffffffffffffffffffffffffffffffffffffff16815260200190815260200160002060008282546113f49190612cb6565b92505081905550816002600083815260200190815260200160002060006101000a81548173ffffffffffffffffffffffffffffffffffffffff021916908373ffffffffffffffffffffffffffffffffffffffff160217905550808273ffffffffffffffffffffffffffffffffffffffff168473ffffffffffffffffffffffffffffffffffffffff167fddf252ad1be2c89b69c2b068fc378daa952ba7f163c4a11628f55a4df523b3ef60405160405180910390a46114b38383836117df565b505050565b600081600001549050919050565b60606114ec8273ffffffffffffffffffffffffffffffffffffffff16601460ff166117e4565b9050919050565b61150d828260405180602001604052806000815250611a20565b5050565b6001816000016000828254019250508190555050565b8173ffffffffffffffffffffffffffffffffffffffff168373ffffffffffffffffffffffffffffffffffffffff1603611595576040517f08c379a000000000000000000000000000000000000000000000000000000000815260040161158c90612f6d565b60405180910390fd5b80600560008573ffffffffffffffffffffffffffffffffffffffff1673ffffffffffffffffffffffffffffffffffffffff16815260200190815260200160002060008473ffffffffffffffffffffffffffffffffffffffff1673ffffffffffffffffffffffffffffffffffffffff16815260200190815260200160002060006101000a81548160ff0219169083151502179055508173ffffffffffffffffffffffffffffffffffffffff168373ffffffffffffffffffffffffffffffffffffffff167f17307eab39ab6107e8899845ad3d59bd9653f200f220920489ca2b5937696c31836040516116869190612127565b60405180910390a3505050565b61169e848484611252565b6116aa84848484611a7b565b6116e9576040517f08c379a00000000000000000000000000000000000000000000000000000000081526004016116e090612fff565b60405180910390fd5b50505050565b606060405180602001604052806000815250905090565b6060611711826110b1565b600061171b6116ef565b9050600081511161173b5760405180602001604052806000815250611766565b8061174584611c02565b604051602001611756929190612dd9565b6040516020818303038152906040525b915050919050565b60008073ffffffffffffffffffffffffffffffffffffffff166002600084815260200190815260200160002060009054906101000a900473ffffffffffffffffffffffffffffffffffffffff1673ffffffffffffffffffffffffffffffffffffffff1614159050919050565b505050565b505050565b6060600060028360026117f79190612d13565b6118019190612cb6565b67ffffffffffffffff81111561181a5761181961232a565b5b6040519080825280601f01601f19166020018201604052801561184c5781602001600182028036833780820191505090505b5090507f3000000000000000000000000000000000000000000000000000000000000000816000815181106118845761188361301f565b5b60200101907effffffffffffffffffffffffffffffffffffffffffffffffffffffffffffff1916908160001a9053507f7800000000000000000000000000000000000000000000000000000000000000816001815181106118e8576118e761301f565b5b60200101907effffffffffffffffffffffffffffffffffffffffffffffffffffffffffffff1916908160001a905350600060018460026119289190612d13565b6119329190612cb6565b90505b60018111156119d2577f3031323334353637383961626364656600000000000000000000000000000000600f8616601081106119745761197361301f565b5b1a60f81b82828151811061198b5761198a61301f565b5b60200101907effffffffffffffffffffffffffffffffffffffffffffffffffffffffffffff1916908160001a905350600485901c9450806119cb9061304e565b9050611935565b5060008414611a16576040517f08c379a0000000000000000000000000000000000000000000000000000000008152600401611a0d906130c3565b60405180910390fd5b8091505092915050565b611a2a8383611d62565b611a376000848484611a7b565b611a76576040517f08c379a0000000000000000000000000000000000000000000000000000000008152600401611a6d90612fff565b60405180910390fd5b505050565b6000611a9c8473ffffffffffffffffffffffffffffffffffffffff16611f3b565b15611bf5578373ffffffffffffffffffffffffffffffffffffffff1663150b7a02611ac56110fc565b8786866040518563ffffffff1660e01b8152600401611ae79493929190613138565b6020604051808303816000875af1925050508015611b2357506040513d601f19601f82011682018060405250810190611b209190613199565b60015b611ba5573d8060008114611b53576040519150601f19603f3d011682016040523d82523d6000602084013e611b58565b606091505b506000815103611b9d576040517f08c379a0000000000000000000000000000000000000000000000000000000008152600401611b9490612fff565b60405180910390fd5b805181602001fd5b63150b7a0260e01b7bffffffffffffffffffffffffffffffffffffffffffffffffffffffff1916817bffffffffffffffffffffffffffffffffffffffffffffffffffffffff191614915050611bfa565b600190505b949350505050565b606060008203611c49576040518060400160405280600181526020017f30000000000000000000000000000000000000000000000000000000000000008152509050611d5d565b600082905060005b60008214611c7b578080611c6490612d55565b915050600a82611c7491906131f5565b9150611c51565b60008167ffffffffffffffff811115611c9757611c9661232a565b5b6040519080825280601f01601f191660200182016040528015611cc95781602001600182028036833780820191505090505b5090505b60008514611d5657600182611ce29190612c82565b9150600a85611cf19190613226565b6030611cfd9190612cb6565b60f81b818381518110611d1357611d1261301f565b5b60200101907effffffffffffffffffffffffffffffffffffffffffffffffffffffffffffff1916908160001a905350600a85611d4f91906131f5565b9450611ccd565b8093505050505b919050565b600073ffffffffffffffffffffffffffffffffffffffff168273ffffffffffffffffffffffffffffffffffffffff1603611dd1576040517f08c379a0000000000000000000000000000000000000000000000000000000008152600401611dc8906132a3565b60405180910390fd5b611dda8161176e565b15611e1a576040517f08c379a0000000000000000000000000000000000000000000000000000000008152600401611e119061330f565b60405180910390fd5b611e26600083836117da565b6001600360008473ffffffffffffffffffffffffffffffffffffffff1673ffffffffffffffffffffffffffffffffffffffff1681526020019081526020016000206000828254611e769190612cb6565b92505081905550816002600083815260200190815260200160002060006101000a81548173ffffffffffffffffffffffffffffffffffffffff021916908373ffffffffffffffffffffffffffffffffffffffff160217905550808273ffffffffffffffffffffffffffffffffffffffff16600073ffffffffffffffffffffffffffffffffffffffff167fddf252ad1be2c89b69c2b068fc378daa952ba7f163c4a11628f55a4df523b3ef60405160405180910390a4611f37600083836117df565b5050565b6000808273ffffffffffffffffffffffffffffffffffffffff163b119050919050565b6000604051905090565b600080fd5b600080fd5b6000819050919050565b611f8581611f72565b8114611f9057600080fd5b50565b600081359050611fa281611f7c565b92915050565b600060208284031215611fbe57611fbd611f68565b5b6000611fcc84828501611f93565b91505092915050565b600081519050919050565b600082825260208201905092915050565b60005b8381101561200f578082015181840152602081019050611ff4565b60008484015250505050565b6000601f19601f8301169050919050565b600061203782611fd5565b6120418185611fe0565b9350612051818560208601611ff1565b61205a8161201b565b840191505092915050565b6000602082019050818103600083015261207f818461202c565b905092915050565b60007fffffffff0000000000000000000000000000000000000000000000000000000082169050919050565b6120bc81612087565b81146120c757600080fd5b50565b6000813590506120d9816120b3565b92915050565b6000602082840312156120f5576120f4611f68565b5b6000612103848285016120ca565b91505092915050565b60008115159050919050565b6121218161210c565b82525050565b600060208201905061213c6000830184612118565b92915050565b61214b81611f72565b82525050565b60006020820190506121666000830184612142565b92915050565b600073ffffffffffffffffffffffffffffffffffffffff82169050919050565b60006121978261216c565b9050919050565b6121a78161218c565b82525050565b60006020820190506121c2600083018461219e565b92915050565b6121d18161218c565b81146121dc57600080fd5b50565b6000813590506121ee816121c8565b92915050565b6000806040838503121561220b5761220a611f68565b5b6000612219858286016121df565b925050602061222a85828601611f93565b9150509250929050565b60008060006060848603121561224d5761224c611f68565b5b600061225b868287016121df565b935050602061226c868287016121df565b925050604061227d86828701611f93565b9150509250925092565b60006020828403121561229d5761229c611f68565b5b60006122ab848285016121df565b91505092915050565b6122bd8161210c565b81146122c857600080fd5b50565b6000813590506122da816122b4565b92915050565b600080604083850312156122f7576122f6611f68565b5b6000612305858286016121df565b9250506020612316858286016122cb565b9150509250929050565b600080fd5b600080fd5b7f4e487b7100000000000000000000000000000000000000000000000000000000600052604160045260246000fd5b6123628261201b565b810181811067ffffffffffffffff821117156123815761238061232a565b5b80604052505050565b6000612394611f5e565b90506123a08282612359565b919050565b600067ffffffffffffffff8211156123c0576123bf61232a565b5b6123c98261201b565b9050602081019050919050565b82818337600083830152505050565b60006123f86123f3846123a5565b61238a565b90508281526020810184848401111561241457612413612325565b5b61241f8482856123d6565b509392505050565b600082601f83011261243c5761243b612320565b5b813561244c8482602086016123e5565b91505092915050565b6000806000806080858703121561246f5761246e611f68565b5b600061247d878288016121df565b945050602061248e878288016121df565b935050604061249f87828801611f93565b925050606085013567ffffffffffffffff8111156124c0576124bf611f6d565b5b6124cc87828801612427565b91505092959194509250565b600067ffffffffffffffff8211156124f3576124f261232a565b5b6124fc8261201b565b9050602081019050919050565b600061251c612517846124d8565b61238a565b90508281526020810184848401111561253857612537612325565b5b6125438482856123d6565b509392505050565b600082601f8301126125605761255f612320565b5b8135612570848260208601612509565b91505092915050565b600080604083850312156125905761258f611f68565b5b600061259e85828601611f93565b925050602083013567ffffffffffffffff8111156125bf576125be611f6d565b5b6125cb8582860161254b565b9150509250929050565b600080604083850312156125ec576125eb611f68565b5b60006125fa85828601611f93565b925050602061260b85828601611f93565b9150509250929050565b6000806040838503121561262c5761262b611f68565b5b600061263a858286016121df565b925050602061264b858286016121df565b9150509250929050565b7f4e487b7100000000000000000000000000000000000000000000000000000000600052602260045260246000fd5b6000600282049050600182168061269c57607f821691505b6020821081036126af576126ae612655565b5b50919050565b7f4552433732313a20617070726f76616c20746f2063757272656e74206f776e6560008201527f7200000000000000000000000000000000000000000000000000000000000000602082015250565b6000612711602183611fe0565b915061271c826126b5565b604082019050919050565b6000602082019050818103600083015261274081612704565b9050919050565b7f4552433732313a20617070726f76652063616c6c6572206973206e6f7420746f60008201527f6b656e206f776e6572206e6f7220617070726f76656420666f7220616c6c0000602082015250565b60006127a3603e83611fe0565b91506127ae82612747565b604082019050919050565b600060208201905081810360008301526127d281612796565b9050919050565b7f4552433732313a2063616c6c6572206973206e6f7420746f6b656e206f776e6560008201527f72206e6f7220617070726f766564000000000000000000000000000000000000602082015250565b6000612835602e83611fe0565b9150612840826127d9565b604082019050919050565b6000602082019050818103600083015261286481612828565b9050919050565b7f416c72656164792073756d6d6f6e656400000000000000000000000000000000600082015250565b60006128a1601083611fe0565b91506128ac8261286b565b602082019050919050565b600060208201905081810360008301526128d081612894565b9050919050565b60008190508160005260206000209050919050565b60006020601f8301049050919050565b600082821b905092915050565b6000600883026129397fffffffffffffffffffffffffffffffffffffffffffffffffffffffffffffffff826128fc565b61294386836128fc565b95508019841693508086168417925050509392505050565b6000819050919050565b600061298061297b61297684611f72565b61295b565b611f72565b9050919050565b6000819050919050565b61299a83612965565b6129ae6129a682612987565b848454612909565b825550505050565b600090565b6129c36129b6565b6129ce818484612991565b505050565b5b818110156129f2576129e76000826129bb565b6001810190506129d4565b5050565b601f821115612a3757612a08816128d7565b612a11846128ec565b81016020851015612a20578190505b612a34612a2c856128ec565b8301826129d3565b50505b505050565b600082821c905092915050565b6000612a5a60001984600802612a3c565b1980831691505092915050565b6000612a738383612a49565b9150826002028217905092915050565b612a8c82611fd5565b67ffffffffffffffff811115612aa557612aa461232a565b5b612aaf8254612684565b612aba8282856129f6565b600060209050601f831160018114612aed5760008415612adb578287015190505b612ae58582612a67565b865550612b4d565b601f198416612afb866128d7565b60005b82811015612b2357848901518255600182019150602085019450602081019050612afe565b86831015612b405784890151612b3c601f891682612a49565b8355505b6001600288020188555050505b505050505050565b7f4552433732313a20696e76616c696420746f6b656e2049440000000000000000600082015250565b6000612b8b601883611fe0565b9150612b9682612b55565b602082019050919050565b60006020820190508181036000830152612bba81612b7e565b9050919050565b7f4552433732313a2061646472657373207a65726f206973206e6f74206120766160008201527f6c6964206f776e65720000000000000000000000000000000000000000000000602082015250565b6000612c1d602983611fe0565b9150612c2882612bc1565b604082019050919050565b60006020820190508181036000830152612c4c81612c10565b9050919050565b7f4e487b7100000000000000000000000000000000000000000000000000000000600052601160045260246000fd5b6000612c8d82611f72565b9150612c9883611f72565b9250828203905081811115612cb057612caf612c53565b5b92915050565b6000612cc182611f72565b9150612ccc83611f72565b9250828201905080821115612ce457612ce3612c53565b5b92915050565b6000604082019050612cff6000830185612142565b612d0c6020830184612142565b9392505050565b6000612d1e82611f72565b9150612d2983611f72565b9250828202612d3781611f72565b91508282048414831517612d4e57612d4d612c53565b5b5092915050565b6000612d6082611f72565b91507fffffffffffffffffffffffffffffffffffffffffffffffffffffffffffffffff8203612d9257612d91612c53565b5b600182019050919050565b600081905092915050565b6000612db382611fd5565b612dbd8185612d9d565b9350612dcd818560208601611ff1565b80840191505092915050565b6000612de58285612da8565b9150612df18284612da8565b91508190509392505050565b7f4552433732313a207472616e736665722066726f6d20696e636f72726563742060008201527f6f776e6572000000000000000000000000000000000000000000000000000000602082015250565b6000612e59602583611fe0565b9150612e6482612dfd565b604082019050919050565b60006020820190508181036000830152612e8881612e4c565b9050919050565b7f4552433732313a207472616e7366657220746f20746865207a65726f2061646460008201527f7265737300000000000000000000000000000000000000000000000000000000602082015250565b6000612eeb602483611fe0565b9150612ef682612e8f565b604082019050919050565b60006020820190508181036000830152612f1a81612ede565b9050919050565b7f4552433732313a20617070726f766520746f2063616c6c657200000000000000600082015250565b6000612f57601983611fe0565b9150612f6282612f21565b602082019050919050565b60006020820190508181036000830152612f8681612f4a565b9050919050565b7f4552433732313a207472616e7366657220746f206e6f6e20455243373231526560008201527f63656976657220696d706c656d656e7465720000000000000000000000000000602082015250565b6000612fe9603283611fe0565b9150612ff482612f8d565b604082019050919050565b6000602082019050818103600083015261301881612fdc565b9050919050565b7f4e487b7100000000000000000000000000000000000000000000000000000000600052603260045260246000fd5b600061305982611f72565b91506000820361306c5761306b612c53565b5b600182039050919050565b7f537472696e67733a20686578206c656e67746820696e73756666696369656e74600082015250565b60006130ad602083611fe0565b91506130b882613077565b602082019050919050565b600060208201905081810360008301526130dc816130a0565b9050919050565b600081519050919050565b600082825260208201905092915050565b600061310a826130e3565b61311481856130ee565b9350613124818560208601611ff1565b61312d8161201b565b840191505092915050565b600060808201905061314d600083018761219e565b61315a602083018661219e565b6131676040830185612142565b818103606083015261317981846130ff565b905095945050505050565b600081519050613193816120b3565b92915050565b6000602082840312156131af576131ae611f68565b5b60006131bd84828501613184565b91505092915050565b7f4e487b7100000000000000000000000000000000000000000000000000000000600052601260045260246000fd5b600061320082611f72565b915061320b83611f72565b92508261321b5761321a6131c6565b5b828204905092915050565b600061323182611f72565b915061323c83611f72565b92508261324c5761324b6131c6565b5b828206905092915050565b7f4552433732313a206d696e7420746f20746865207a65726f2061646472657373600082015250565b600061328d602083611fe0565b915061329882613257565b602082019050919050565b600060208201905081810360008301526132bc81613280565b9050919050565b7f4552433732313a20746f6b656e20616c7265616479206d696e74656400000000600082015250565b60006132f9601c83611fe0565b9150613304826132c3565b602082019050919050565b60006020820190508181036000830152613328816132ec565b905091905056fea26469706673582212208aae0578113d184725ce92dccff9ebd091e4ffcf056723a26162f698c091d16564736f6c63430008110033",
  "devdoc": {
    "kind": "dev",
    "methods": {
      "approve(address,uint256)": {
        "details": "See {IERC721-approve}."
      },
      "balanceOf(address)": {
        "details": "See {IERC721-balanceOf}."
      },
      "getApproved(uint256)": {
        "details": "See {IERC721-getApproved}."
      },
      "isApprovedForAll(address,address)": {
        "details": "See {IERC721-isApprovedForAll}."
      },
      "name()": {
        "details": "See {IERC721Metadata-name}."
      },
      "ownerOf(uint256)": {
        "details": "See {IERC721-ownerOf}."
      },
      "safeTransferFrom(address,address,uint256)": {
        "details": "See {IERC721-safeTransferFrom}."
      },
      "safeTransferFrom(address,address,uint256,bytes)": {
        "details": "See {IERC721-safeTransferFrom}."
      },
      "setApprovalForAll(address,bool)": {
        "details": "See {IERC721-setApprovalForAll}."
      },
      "supportsInterface(bytes4)": {
        "details": "See {IERC165-supportsInterface}."
      },
      "symbol()": {
        "details": "See {IERC721Metadata-symbol}."
      },
      "tokenURI(uint256)": {
        "details": "See {IERC721Metadata-tokenURI}."
      },
      "transferFrom(address,address,uint256)": {
        "details": "See {IERC721-transferFrom}."
      }
    },
    "version": 1
  },
  "userdoc": {
    "kind": "user",
    "methods": {},
    "version": 1
  },
  "storageLayout": {
    "storage": [
      {
        "astId": 25,
        "contract": "contracts/core/Character.sol:Character",
        "label": "_name",
        "offset": 0,
        "slot": "0",
        "type": "t_string_storage"
      },
      {
        "astId": 27,
        "contract": "contracts/core/Character.sol:Character",
        "label": "_symbol",
        "offset": 0,
        "slot": "1",
        "type": "t_string_storage"
      },
      {
        "astId": 31,
        "contract": "contracts/core/Character.sol:Character",
        "label": "_owners",
        "offset": 0,
        "slot": "2",
        "type": "t_mapping(t_uint256,t_address)"
      },
      {
        "astId": 35,
        "contract": "contracts/core/Character.sol:Character",
        "label": "_balances",
        "offset": 0,
        "slot": "3",
        "type": "t_mapping(t_address,t_uint256)"
      },
      {
        "astId": 39,
        "contract": "contracts/core/Character.sol:Character",
        "label": "_tokenApprovals",
        "offset": 0,
        "slot": "4",
        "type": "t_mapping(t_uint256,t_address)"
      },
      {
        "astId": 45,
        "contract": "contracts/core/Character.sol:Character",
        "label": "_operatorApprovals",
        "offset": 0,
        "slot": "5",
        "type": "t_mapping(t_address,t_mapping(t_address,t_bool))"
      },
      {
        "astId": 1013,
        "contract": "contracts/core/Character.sol:Character",
        "label": "_tokenURIs",
        "offset": 0,
        "slot": "6",
        "type": "t_mapping(t_uint256,t_string_storage)"
      },
      {
        "astId": 2555,
        "contract": "contracts/core/Character.sol:Character",
        "label": "_tokenIdCounter",
        "offset": 0,
        "slot": "7",
        "type": "t_struct(Counter)1475_storage"
      },
      {
        "astId": 2559,
        "contract": "contracts/core/Character.sol:Character",
        "label": "mintedAddress",
        "offset": 0,
        "slot": "8",
        "type": "t_mapping(t_address,t_bool)"
      },
      {
        "astId": 2563,
        "contract": "contracts/core/Character.sol:Character",
        "label": "name",
        "offset": 0,
        "slot": "9",
        "type": "t_mapping(t_uint256,t_string_storage)"
      },
      {
        "astId": 2567,
        "contract": "contracts/core/Character.sol:Character",
        "label": "level",
        "offset": 0,
        "slot": "10",
        "type": "t_mapping(t_uint256,t_uint256)"
      },
      {
        "astId": 2571,
        "contract": "contracts/core/Character.sol:Character",
        "label": "xp",
        "offset": 0,
        "slot": "11",
        "type": "t_mapping(t_uint256,t_uint256)"
      }
    ],
    "types": {
      "t_address": {
        "encoding": "inplace",
        "label": "address",
        "numberOfBytes": "20"
      },
      "t_bool": {
        "encoding": "inplace",
        "label": "bool",
        "numberOfBytes": "1"
      },
      "t_mapping(t_address,t_bool)": {
        "encoding": "mapping",
        "key": "t_address",
        "label": "mapping(address => bool)",
        "numberOfBytes": "32",
        "value": "t_bool"
      },
      "t_mapping(t_address,t_mapping(t_address,t_bool))": {
        "encoding": "mapping",
        "key": "t_address",
        "label": "mapping(address => mapping(address => bool))",
        "numberOfBytes": "32",
        "value": "t_mapping(t_address,t_bool)"
      },
      "t_mapping(t_address,t_uint256)": {
        "encoding": "mapping",
        "key": "t_address",
        "label": "mapping(address => uint256)",
        "numberOfBytes": "32",
        "value": "t_uint256"
      },
      "t_mapping(t_uint256,t_address)": {
        "encoding": "mapping",
        "key": "t_uint256",
        "label": "mapping(uint256 => address)",
        "numberOfBytes": "32",
        "value": "t_address"
      },
      "t_mapping(t_uint256,t_string_storage)": {
        "encoding": "mapping",
        "key": "t_uint256",
        "label": "mapping(uint256 => string)",
        "numberOfBytes": "32",
        "value": "t_string_storage"
      },
      "t_mapping(t_uint256,t_uint256)": {
        "encoding": "mapping",
        "key": "t_uint256",
        "label": "mapping(uint256 => uint256)",
        "numberOfBytes": "32",
        "value": "t_uint256"
      },
      "t_string_storage": {
        "encoding": "bytes",
        "label": "string",
        "numberOfBytes": "32"
      },
      "t_struct(Counter)1475_storage": {
        "encoding": "inplace",
        "label": "struct Counters.Counter",
        "members": [
          {
            "astId": 1474,
            "contract": "contracts/core/Character.sol:Character",
            "label": "_value",
            "offset": 0,
            "slot": "0",
            "type": "t_uint256"
          }
        ],
        "numberOfBytes": "32"
      },
      "t_uint256": {
        "encoding": "inplace",
        "label": "uint256",
        "numberOfBytes": "32"
      }
    }
  }
}