{
  "address": "0xDc64a140Aa3E981100a9becA4E685f962f0cF6C9",
  "abi": [
    {
      "inputs": [],
      "name": "class",
      "outputs": [
        {
          "internalType": "string",
          "name": "",
          "type": "string"
        }
      ],
      "stateMutability": "view",
      "type": "function"
    },
    {
      "inputs": [
        {
          "internalType": "uint256",
          "name": "_summoner",
          "type": "uint256"
        }
      ],
      "name": "d10",
      "outputs": [
        {
          "internalType": "uint256",
          "name": "",
          "type": "uint256"
        }
      ],
      "stateMutability": "view",
      "type": "function"
    },
    {
      "inputs": [
        {
          "internalType": "uint256",
          "name": "_summoner",
          "type": "uint256"
        }
      ],
      "name": "d100",
      "outputs": [
        {
          "internalType": "uint256",
          "name": "",
          "type": "uint256"
        }
      ],
      "stateMutability": "view",
      "type": "function"
    },
    {
      "inputs": [
        {
          "internalType": "uint256",
          "name": "_summoner",
          "type": "uint256"
        }
      ],
      "name": "d12",
      "outputs": [
        {
          "internalType": "uint256",
          "name": "",
          "type": "uint256"
        }
      ],
      "stateMutability": "view",
      "type": "function"
    },
    {
      "inputs": [
        {
          "internalType": "uint256",
          "name": "_summoner",
          "type": "uint256"
        }
      ],
      "name": "d20",
      "outputs": [
        {
          "internalType": "uint256",
          "name": "",
          "type": "uint256"
        }
      ],
      "stateMutability": "view",
      "type": "function"
    },
    {
      "inputs": [
        {
          "internalType": "uint256",
          "name": "_summoner",
          "type": "uint256"
        }
      ],
      "name": "d4",
      "outputs": [
        {
          "internalType": "uint256",
          "name": "",
          "type": "uint256"
        }
      ],
      "stateMutability": "view",
      "type": "function"
    },
    {
      "inputs": [
        {
          "internalType": "uint256",
          "name": "_summoner",
          "type": "uint256"
        }
      ],
      "name": "d6",
      "outputs": [
        {
          "internalType": "uint256",
          "name": "",
          "type": "uint256"
        }
      ],
      "stateMutability": "view",
      "type": "function"
    },
    {
      "inputs": [
        {
          "internalType": "uint256",
          "name": "_summoner",
          "type": "uint256"
        }
      ],
      "name": "d8",
      "outputs": [
        {
          "internalType": "uint256",
          "name": "",
          "type": "uint256"
        }
      ],
      "stateMutability": "view",
      "type": "function"
    },
    {
      "inputs": [
        {
          "internalType": "uint256",
          "name": "_summoner",
          "type": "uint256"
        },
        {
          "internalType": "uint256",
          "name": "_number",
          "type": "uint256"
        }
      ],
      "name": "dn",
      "outputs": [
        {
          "internalType": "uint256",
          "name": "",
          "type": "uint256"
        }
      ],
      "stateMutability": "view",
      "type": "function"
    },
    {
      "inputs": [],
      "name": "index",
      "outputs": [
        {
          "internalType": "string",
          "name": "",
          "type": "string"
        }
      ],
      "stateMutability": "view",
      "type": "function"
    }
  ],
  "transactionHash": "0x8a46f227c9bd881f3edef889f62252d5cb74adef356156ed8ed73abdc37c1638",
  "args": [],
  "numDeployments": 1,
  "solcInputHash": "aedc6c28a6687fccc7db325b9811a676",
  "bytecode": "0x608060405234801561001057600080fd5b506107d6806100206000396000f3fe608060405234801561001057600080fd5b506004361061009e5760003560e01c8063438303bf11610066578063438303bf146101815780636d0772d7146101b1578063952bbefe146101e1578063bff852fa14610211578063e668f6b61461022f5761009e565b80631386fa88146100a357806321183e8d146100d35780632986c0e5146101035780632ee41bdd146101215780633f9fdf3c14610151575b600080fd5b6100bd60048036038101906100b8919061042d565b61025f565b6040516100ca9190610469565b60405180910390f35b6100ed60048036038101906100e8919061042d565b610273565b6040516100fa9190610469565b60405180910390f35b61010b610287565b6040516101189190610514565b60405180910390f35b61013b6004803603810190610136919061042d565b6102c0565b6040516101489190610469565b60405180910390f35b61016b60048036038101906101669190610536565b6102d4565b6040516101789190610469565b60405180910390f35b61019b6004803603810190610196919061042d565b6102f2565b6040516101a89190610469565b60405180910390f35b6101cb60048036038101906101c6919061042d565b610306565b6040516101d89190610469565b60405180910390f35b6101fb60048036038101906101f6919061042d565b61031a565b6040516102089190610469565b60405180910390f35b61021961032e565b6040516102269190610514565b60405180910390f35b6102496004803603810190610244919061042d565b610367565b6040516102569190610469565b60405180910390f35b600061026c8260086102d4565b9050919050565b60006102808260046102d4565b9050919050565b6040518060400160405280600481526020017f426173650000000000000000000000000000000000000000000000000000000081525081565b60006102cd82600c6102d4565b9050919050565b6000816102e08461037b565b6102ea91906105a5565b905092915050565b60006102ff8260146102d4565b9050919050565b60006103138260646102d4565b9050919050565b600061032782600a6102d4565b9050919050565b6040518060400160405280600681526020017f52616e646f6d000000000000000000000000000000000000000000000000000081525081565b60006103748260066102d4565b9050919050565b60006103b84260014361038e9190610605565b4084336040516020016103a494939291906106ff565b6040516020818303038152906040526103bf565b9050919050565b6000816040516020016103d29190610789565b6040516020818303038152906040528051906020012060001c9050919050565b600080fd5b6000819050919050565b61040a816103f7565b811461041557600080fd5b50565b60008135905061042781610401565b92915050565b600060208284031215610443576104426103f2565b5b600061045184828501610418565b91505092915050565b610463816103f7565b82525050565b600060208201905061047e600083018461045a565b92915050565b600081519050919050565b600082825260208201905092915050565b60005b838110156104be5780820151818401526020810190506104a3565b60008484015250505050565b6000601f19601f8301169050919050565b60006104e682610484565b6104f0818561048f565b93506105008185602086016104a0565b610509816104ca565b840191505092915050565b6000602082019050818103600083015261052e81846104db565b905092915050565b6000806040838503121561054d5761054c6103f2565b5b600061055b85828601610418565b925050602061056c85828601610418565b9150509250929050565b7f4e487b7100000000000000000000000000000000000000000000000000000000600052601260045260246000fd5b60006105b0826103f7565b91506105bb836103f7565b9250826105cb576105ca610576565b5b828206905092915050565b7f4e487b7100000000000000000000000000000000000000000000000000000000600052601160045260246000fd5b6000610610826103f7565b915061061b836103f7565b9250828203905081811115610633576106326105d6565b5b92915050565b6000819050919050565b61065461064f826103f7565b610639565b82525050565b6000819050919050565b6000819050919050565b61067f61067a8261065a565b610664565b82525050565b600073ffffffffffffffffffffffffffffffffffffffff82169050919050565b60006106b082610685565b9050919050565b60008160601b9050919050565b60006106cf826106b7565b9050919050565b60006106e1826106c4565b9050919050565b6106f96106f4826106a5565b6106d6565b82525050565b600061070b8287610643565b60208201915061071b828661066e565b60208201915061072b8285610643565b60208201915061073b82846106e8565b60148201915081905095945050505050565b600081905092915050565b600061076382610484565b61076d818561074d565b935061077d8185602086016104a0565b80840191505092915050565b60006107958284610758565b91508190509291505056fea2646970667358221220a81e2fa71415ff060fcfdfa6c851f1affa10d7e94a9295e9d2dd9d23ad957f8e64736f6c63430008110033",
  "devdoc": {
    "kind": "dev",
    "methods": {},
    "version": 1
  },
  "userdoc": {
    "kind": "user",
    "methods": {},
    "version": 1
  },
  "storageLayout": {
    "storage": [],
    "types": null
  }
}