{
  "address": "0xCf7Ed3AccA5a467e9e704C703E8D87F634fB0Fc9",
  "abi": [
    {
      "anonymous": false,
      "inputs": [
        {
          "indexed": true,
          "internalType": "address",
          "name": "owner",
          "type": "address"
        },
        {
          "indexed": false,
          "internalType": "uint256",
          "name": "hunter",
          "type": "uint256"
        }
      ],
      "name": "__current_event",
      "type": "event"
    },
    {
      "inputs": [
        {
          "internalType": "uint256",
          "name": "",
          "type": "uint256"
        }
      ],
      "name": "events",
      "outputs": [
        {
          "internalType": "uint8",
          "name": "",
          "type": "uint8"
        }
      ],
      "stateMutability": "view",
      "type": "function"
    },
    {
      "inputs": [
        {
          "internalType": "uint256",
          "name": "_hunter",
          "type": "uint256"
        }
      ],
      "name": "generate_events",
      "outputs": [],
      "stateMutability": "nonpayable",
      "type": "function"
    },
    {
      "inputs": [
        {
          "internalType": "uint256",
          "name": "_hunter",
          "type": "uint256"
        }
      ],
      "name": "get_events",
      "outputs": [
        {
          "internalType": "uint8",
          "name": "",
          "type": "uint8"
        }
      ],
      "stateMutability": "view",
      "type": "function"
    }
  ],
  "transactionHash": "0x40fb592de3428041b18319729da8c825fe9320182bfc111c9db526f83005c8ce",
  "args": [],
  "numDeployments": 1,
  "solcInputHash": "25d416f232b23977708d629cdb851521",
  "bytecode": "0x608060405234801561001057600080fd5b5061067b806100206000396000f3fe608060405234801561001057600080fd5b50600436106100415760003560e01c80630b791430146100465780638caba02c14610076578063f77ec23b14610092575b600080fd5b610060600480360381019061005b9190610447565b6100c2565b60405161006d9190610490565b60405180910390f35b610090600480360381019061008b9190610447565b6100e2565b005b6100ac60048036038101906100a79190610447565b61020b565b6040516100b99190610490565b60405180910390f35b60006020528060005260406000206000915054906101000a900460ff1681565b6100eb81610234565b6100f457600080fd5b600061018c7367ae39a2ee91d7258a86cd901b17527e19e493b373ffffffffffffffffffffffffffffffffffffffff166321183e8d846040518263ffffffff1660e01b815260040161014691906104ba565b602060405180830381865afa158015610163573d6000803e3d6000fd5b505050506040513d601f19601f8201168201806040525081019061018791906104ea565b6103bc565b90508060008084815260200190815260200160002060006101000a81548160ff021916908360ff1602179055503373ffffffffffffffffffffffffffffffffffffffff167f4818171a378d4ecb1fc46d1a7f03def56b9d10dce0f92ecd8e122b35f583a2bf836040516101ff91906104ba565b60405180910390a25050565b600080600083815260200190815260200160002060009054906101000a900460ff169050919050565b60003373ffffffffffffffffffffffffffffffffffffffff1673ce761d788df608bd21bdd59d6f4b54b2e27f25bb73ffffffffffffffffffffffffffffffffffffffff1663081812fc846040518263ffffffff1660e01b815260040161029a91906104ba565b602060405180830381865afa1580156102b7573d6000803e3d6000fd5b505050506040513d601f19601f820116820180604052508101906102db9190610575565b73ffffffffffffffffffffffffffffffffffffffff1614806103b557503373ffffffffffffffffffffffffffffffffffffffff1673ce761d788df608bd21bdd59d6f4b54b2e27f25bb73ffffffffffffffffffffffffffffffffffffffff16636352211e846040518263ffffffff1660e01b815260040161035c91906104ba565b602060405180830381865afa158015610379573d6000803e3d6000fd5b505050506040513d601f19601f8201168201806040525081019061039d9190610575565b73ffffffffffffffffffffffffffffffffffffffff16145b9050919050565b600060ff8016821115610404576040517f08c379a00000000000000000000000000000000000000000000000000000000081526004016103fb90610625565b60405180910390fd5b819050919050565b600080fd5b6000819050919050565b61042481610411565b811461042f57600080fd5b50565b6000813590506104418161041b565b92915050565b60006020828403121561045d5761045c61040c565b5b600061046b84828501610432565b91505092915050565b600060ff82169050919050565b61048a81610474565b82525050565b60006020820190506104a56000830184610481565b92915050565b6104b481610411565b82525050565b60006020820190506104cf60008301846104ab565b92915050565b6000815190506104e48161041b565b92915050565b600060208284031215610500576104ff61040c565b5b600061050e848285016104d5565b91505092915050565b600073ffffffffffffffffffffffffffffffffffffffff82169050919050565b600061054282610517565b9050919050565b61055281610537565b811461055d57600080fd5b50565b60008151905061056f81610549565b92915050565b60006020828403121561058b5761058a61040c565b5b600061059984828501610560565b91505092915050565b600082825260208201905092915050565b7f53616665436173743a2076616c756520646f65736e27742066697420696e203860008201527f2062697473000000000000000000000000000000000000000000000000000000602082015250565b600061060f6025836105a2565b915061061a826105b3565b604082019050919050565b6000602082019050818103600083015261063e81610602565b905091905056fea264697066735822122073be29ea9335fe5e0b028634cc5dc0c75ce84a0fb716581ccea8ec367b28a60c64736f6c63430008110033",
  "devdoc": {
    "kind": "dev",
    "methods": {},
    "version": 1
  },
  "userdoc": {
    "kind": "user",
    "methods": {},
    "version": 1
  },
  "storageLayout": {
    "storage": [
      {
        "astId": 4953,
        "contract": "contracts/core/Events.sol:Events",
        "label": "events",
        "offset": 0,
        "slot": "0",
        "type": "t_mapping(t_uint256,t_uint8)"
      }
    ],
    "types": {
      "t_mapping(t_uint256,t_uint8)": {
        "encoding": "mapping",
        "key": "t_uint256",
        "label": "mapping(uint256 => uint8)",
        "numberOfBytes": "32",
        "value": "t_uint8"
      },
      "t_uint256": {
        "encoding": "inplace",
        "label": "uint256",
        "numberOfBytes": "32"
      },
      "t_uint8": {
        "encoding": "inplace",
        "label": "uint8",
        "numberOfBytes": "1"
      }
    }
  }
}