{
  "address": "0x59b670e9fA9D0A427751Af201D676719a970857b",
  "abi": [
    {
      "inputs": [
        {
          "internalType": "uint256",
          "name": "",
          "type": "uint256"
        },
        {
          "internalType": "uint256",
          "name": "",
          "type": "uint256"
        }
      ],
      "name": "events",
      "outputs": [
        {
          "internalType": "uint8",
          "name": "",
          "type": "uint8"
        }
      ],
      "stateMutability": "view",
      "type": "function"
    },
    {
      "inputs": [
        {
          "internalType": "uint256",
          "name": "_summoner",
          "type": "uint256"
        }
      ],
      "name": "get_events",
      "outputs": [
        {
          "internalType": "uint8[36]",
          "name": "",
          "type": "uint8[36]"
        }
      ],
      "stateMutability": "view",
      "type": "function"
    },
    {
      "inputs": [
        {
          "internalType": "uint256",
          "name": "_summoner",
          "type": "uint256"
        },
        {
          "internalType": "uint8[36]",
          "name": "_events",
          "type": "uint8[36]"
        }
      ],
      "name": "set_events",
      "outputs": [],
      "stateMutability": "nonpayable",
      "type": "function"
    }
  ],
  "transactionHash": "0x48cfb858df7b2197f09c403a3297b4a406309ac9cb068ae5ddb1f717c796cb30",
  "args": [],
  "numDeployments": 1,
  "solcInputHash": "d26e5f205c9b9c65669421ce046c00e8",
  "bytecode": "0x608060405234801561001057600080fd5b506109e7806100206000396000f3fe608060405234801561001057600080fd5b50600436106100415760003560e01c80631f6ea116146100465780638a24bcb714610062578063f77ec23b14610092575b600080fd5b610060600480360381019061005b91906106b7565b6100c2565b005b61007c600480360381019061007791906106f8565b6101d4565b6040516100899190610747565b60405180910390f35b6100ac60048036038101906100a79190610762565b61020d565b6040516100b9919061083a565b60405180910390f35b6100cb82610290565b6100d457600080fd5b6000806000848152602001908152602001600020602480602002604051908101604052809291908260248015610145576020028201916000905b82829054906101000a900460ff1660ff168152602001906001019060208260000104928301926001038202915080841161010e5790505b5050505050905060005b60248110156101ac5782816024811061016b5761016a610856565b5b602002015160ff1682826024811061018657610185610856565b5b602002015160ff16111561019957600080fd5b80806101a4906108b4565b91505061014f565b50816000808581526020019081526020016000209060246101ce929190610418565b50505050565b600060205281600052604060002081602481106101f057600080fd5b60209182820401919006915091509054906101000a900460ff1681565b6102156104b2565b600080838152602001908152602001600020602480602002604051908101604052809291908260248015610284576020028201916000905b82829054906101000a900460ff1660ff168152602001906001019060208260000104928301926001038202915080841161024d5790505b50505050509050919050565b60003373ffffffffffffffffffffffffffffffffffffffff1673ce761d788df608bd21bdd59d6f4b54b2e27f25bb73ffffffffffffffffffffffffffffffffffffffff1663081812fc846040518263ffffffff1660e01b81526004016102f6919061090b565b602060405180830381865afa158015610313573d6000803e3d6000fd5b505050506040513d601f19601f820116820180604052508101906103379190610984565b73ffffffffffffffffffffffffffffffffffffffff16148061041157503373ffffffffffffffffffffffffffffffffffffffff1673ce761d788df608bd21bdd59d6f4b54b2e27f25bb73ffffffffffffffffffffffffffffffffffffffff16636352211e846040518263ffffffff1660e01b81526004016103b8919061090b565b602060405180830381865afa1580156103d5573d6000803e3d6000fd5b505050506040513d601f19601f820116820180604052508101906103f99190610984565b73ffffffffffffffffffffffffffffffffffffffff16145b9050919050565b826024601f016020900481019282156104a15791602002820160005b8382111561047257835183826101000a81548160ff021916908360ff1602179055509260200192600101602081600001049283019260010302610434565b801561049f5782816101000a81549060ff0219169055600101602081600001049283019260010302610472565b505b5090506104ae91906104d5565b5090565b604051806104800160405280602490602082028036833780820191505090505090565b5b808211156104ee5760008160009055506001016104d6565b5090565b6000604051905090565b600080fd5b6000819050919050565b61051481610501565b811461051f57600080fd5b50565b6000813590506105318161050b565b92915050565b600080fd5b6000601f19601f8301169050919050565b7f4e487b7100000000000000000000000000000000000000000000000000000000600052604160045260246000fd5b6105858261053c565b810181811067ffffffffffffffff821117156105a4576105a361054d565b5b80604052505050565b60006105b76104f2565b90506105c3828261057c565b919050565b600067ffffffffffffffff8211156105e3576105e261054d565b5b602082029050919050565b600080fd5b600060ff82169050919050565b610609816105f3565b811461061457600080fd5b50565b60008135905061062681610600565b92915050565b600061063f61063a846105c8565b6105ad565b90508060208402830185811115610659576106586105ee565b5b835b81811015610682578061066e8882610617565b84526020840193505060208101905061065b565b5050509392505050565b600082601f8301126106a1576106a0610537565b5b60246106ae84828561062c565b91505092915050565b6000806104a083850312156106cf576106ce6104fc565b5b60006106dd85828601610522565b92505060206106ee8582860161068c565b9150509250929050565b6000806040838503121561070f5761070e6104fc565b5b600061071d85828601610522565b925050602061072e85828601610522565b9150509250929050565b610741816105f3565b82525050565b600060208201905061075c6000830184610738565b92915050565b600060208284031215610778576107776104fc565b5b600061078684828501610522565b91505092915050565b600060249050919050565b600081905092915050565b6000819050919050565b6107b8816105f3565b82525050565b60006107ca83836107af565b60208301905092915050565b6000602082019050919050565b6107ec8161078f565b6107f6818461079a565b9250610801826107a5565b8060005b8381101561083257815161081987826107be565b9650610824836107d6565b925050600181019050610805565b505050505050565b60006104808201905061085060008301846107e3565b92915050565b7f4e487b7100000000000000000000000000000000000000000000000000000000600052603260045260246000fd5b7f4e487b7100000000000000000000000000000000000000000000000000000000600052601160045260246000fd5b60006108bf82610501565b91507fffffffffffffffffffffffffffffffffffffffffffffffffffffffffffffffff82036108f1576108f0610885565b5b600182019050919050565b61090581610501565b82525050565b600060208201905061092060008301846108fc565b92915050565b600073ffffffffffffffffffffffffffffffffffffffff82169050919050565b600061095182610926565b9050919050565b61096181610946565b811461096c57600080fd5b50565b60008151905061097e81610958565b92915050565b60006020828403121561099a576109996104fc565b5b60006109a88482850161096f565b9150509291505056fea26469706673582212202e4eabbd6bfb585051dbbe7c0efc94e33a8dd4b415cb3f093831566d111cab7a64736f6c63430008110033",
  "devdoc": {
    "kind": "dev",
    "methods": {},
    "version": 1
  },
  "userdoc": {
    "kind": "user",
    "methods": {},
    "version": 1
  },
  "storageLayout": {
    "storage": [
      {
        "astId": 2868,
        "contract": "contracts/core/Events.sol:Events",
        "label": "events",
        "offset": 0,
        "slot": "0",
        "type": "t_mapping(t_uint256,t_array(t_uint8)36_storage)"
      }
    ],
    "types": {
      "t_array(t_uint8)36_storage": {
        "base": "t_uint8",
        "encoding": "inplace",
        "label": "uint8[36]",
        "numberOfBytes": "64"
      },
      "t_mapping(t_uint256,t_array(t_uint8)36_storage)": {
        "encoding": "mapping",
        "key": "t_uint256",
        "label": "mapping(uint256 => uint8[36])",
        "numberOfBytes": "32",
        "value": "t_array(t_uint8)36_storage"
      },
      "t_uint256": {
        "encoding": "inplace",
        "label": "uint256",
        "numberOfBytes": "32"
      },
      "t_uint8": {
        "encoding": "inplace",
        "label": "uint8",
        "numberOfBytes": "1"
      }
    }
  }
}