{
  "address": "0xDc64a140Aa3E981100a9becA4E685f962f0cF6C9",
  "abi": [
    {
      "inputs": [
        {
          "internalType": "contract IERC721",
          "name": "_nftCollection",
          "type": "address"
        },
        {
          "internalType": "address",
          "name": "coinAddr",
          "type": "address"
        },
        {
          "internalType": "address",
          "name": "charAddr",
          "type": "address"
        }
      ],
      "stateMutability": "nonpayable",
      "type": "constructor"
    },
    {
      "inputs": [
        {
          "internalType": "address",
          "name": "_staker",
          "type": "address"
        }
      ],
      "name": "availableRewards",
      "outputs": [
        {
          "internalType": "uint256",
          "name": "",
          "type": "uint256"
        }
      ],
      "stateMutability": "view",
      "type": "function"
    },
    {
      "inputs": [
        {
          "internalType": "uint256",
          "name": "_hunter",
          "type": "uint256"
        }
      ],
      "name": "claimRewards",
      "outputs": [],
      "stateMutability": "nonpayable",
      "type": "function"
    },
    {
      "inputs": [],
      "name": "coin",
      "outputs": [
        {
          "internalType": "contract Coin",
          "name": "",
          "type": "address"
        }
      ],
      "stateMutability": "view",
      "type": "function"
    },
    {
      "inputs": [
        {
          "internalType": "address",
          "name": "_user",
          "type": "address"
        }
      ],
      "name": "getStakedTokens",
      "outputs": [
        {
          "components": [
            {
              "internalType": "address",
              "name": "staker",
              "type": "address"
            },
            {
              "internalType": "uint256",
              "name": "tokenId",
              "type": "uint256"
            }
          ],
          "internalType": "struct Staking.StakedToken[]",
          "name": "",
          "type": "tuple[]"
        }
      ],
      "stateMutability": "view",
      "type": "function"
    },
    {
      "inputs": [],
      "name": "hunter",
      "outputs": [
        {
          "internalType": "contract Character",
          "name": "",
          "type": "address"
        }
      ],
      "stateMutability": "view",
      "type": "function"
    },
    {
      "inputs": [],
      "name": "nftCollection",
      "outputs": [
        {
          "internalType": "contract IERC721",
          "name": "",
          "type": "address"
        }
      ],
      "stateMutability": "view",
      "type": "function"
    },
    {
      "inputs": [
        {
          "internalType": "uint256",
          "name": "_tokenId",
          "type": "uint256"
        }
      ],
      "name": "stake",
      "outputs": [],
      "stateMutability": "nonpayable",
      "type": "function"
    },
    {
      "inputs": [
        {
          "internalType": "uint256",
          "name": "",
          "type": "uint256"
        }
      ],
      "name": "stakerAddress",
      "outputs": [
        {
          "internalType": "address",
          "name": "",
          "type": "address"
        }
      ],
      "stateMutability": "view",
      "type": "function"
    },
    {
      "inputs": [
        {
          "internalType": "address",
          "name": "",
          "type": "address"
        }
      ],
      "name": "stakers",
      "outputs": [
        {
          "internalType": "uint256",
          "name": "amountStaked",
          "type": "uint256"
        },
        {
          "internalType": "uint256",
          "name": "timeOfLastUpdate",
          "type": "uint256"
        },
        {
          "internalType": "uint256",
          "name": "unclaimedRewards",
          "type": "uint256"
        }
      ],
      "stateMutability": "view",
      "type": "function"
    },
    {
      "inputs": [
        {
          "internalType": "uint256",
          "name": "_tokenId",
          "type": "uint256"
        }
      ],
      "name": "withdraw",
      "outputs": [],
      "stateMutability": "nonpayable",
      "type": "function"
    }
  ],
  "transactionHash": "0xfb5d03cd5cf2475d23954a927142ade04df3fdbb10a69fba86c51d1708cfd027",
  "args": [
    "0xCf7Ed3AccA5a467e9e704C703E8D87F634fB0Fc9",
    "0x9fE46736679d2D9a65F0992F2272dE9f3c7fa6e0",
    "0xe7f1725E7734CE288F8367e1Bb143E90bb3F0512"
  ],
  "numDeployments": 1,
  "solcInputHash": "e9e91761ad028a589f1834621c860afb",
  "bytecode": "0x60e0604052620186a06001553480156200001857600080fd5b5060405162001f7c38038062001f7c83398181016040528101906200003e91906200019a565b60016000819055508273ffffffffffffffffffffffffffffffffffffffff1660808173ffffffffffffffffffffffffffffffffffffffff16815250508173ffffffffffffffffffffffffffffffffffffffff1660a08173ffffffffffffffffffffffffffffffffffffffff16815250508073ffffffffffffffffffffffffffffffffffffffff1660c08173ffffffffffffffffffffffffffffffffffffffff1681525050505050620001f6565b600080fd5b600073ffffffffffffffffffffffffffffffffffffffff82169050919050565b60006200011d82620000f0565b9050919050565b6000620001318262000110565b9050919050565b620001438162000124565b81146200014f57600080fd5b50565b600081519050620001638162000138565b92915050565b620001748162000110565b81146200018057600080fd5b50565b600081519050620001948162000169565b92915050565b600080600060608486031215620001b657620001b5620000eb565b5b6000620001c68682870162000152565b9350506020620001d98682870162000183565b9250506040620001ec8682870162000183565b9150509250925092565b60805160a05160c051611d2c6200025060003960008181610406015281816112b3015261138101526000818161035301526103e20152600081816108eb01528181610d3401528181610ecc0152610fbc0152611d2c6000f3fe608060405234801561001057600080fd5b506004361061009e5760003560e01c80636588103b116100665780636588103b146101475780639168ae72146101655780639406704514610197578063a694fc3a146101c7578063f854a27f146101e35761009e565b80630962ef79146100a357806311df9995146100bf5780631602f7b0146100dd5780632e1a7d4d146100fb57806363c28db114610117575b600080fd5b6100bd60048036038101906100b89190611561565b610213565b005b6100c76103e0565b6040516100d4919061160d565b60405180910390f35b6100e5610404565b6040516100f29190611649565b60405180910390f35b61011560048036038101906101109190611561565b610428565b005b610131600480360381019061012c91906116a2565b6109cc565b60405161013e91906117cb565b60405180910390f35b61014f610d32565b60405161015c919061180e565b60405180910390f35b61017f600480360381019061017a91906116a2565b610d56565b60405161018e93929190611838565b60405180910390f35b6101b160048036038101906101ac9190611561565b610d80565b6040516101be919061187e565b60405180910390f35b6101e160048036038101906101dc9190611561565b610db3565b005b6101fd60048036038101906101f891906116a2565b611234565b60405161020a9190611899565b60405180910390f35b61021c81611298565b61022557600080fd5b6000600260003373ffffffffffffffffffffffffffffffffffffffff1673ffffffffffffffffffffffffffffffffffffffff1681526020019081526020016000206003015461027333611438565b61027d91906118e3565b9050600081116102c2576040517f08c379a00000000000000000000000000000000000000000000000000000000081526004016102b990611974565b60405180910390fd5b42600260003373ffffffffffffffffffffffffffffffffffffffff1673ffffffffffffffffffffffffffffffffffffffff168152602001908152602001600020600201819055506000600260003373ffffffffffffffffffffffffffffffffffffffff1673ffffffffffffffffffffffffffffffffffffffff168152602001908152602001600020600301819055507f000000000000000000000000000000000000000000000000000000000000000073ffffffffffffffffffffffffffffffffffffffff1663379607f5836040518263ffffffff1660e01b81526004016103aa9190611899565b600060405180830381600087803b1580156103c457600080fd5b505af11580156103d8573d6000803e3d6000fd5b505050505050565b7f000000000000000000000000000000000000000000000000000000000000000081565b7f000000000000000000000000000000000000000000000000000000000000000081565b60026000540361046d576040517f08c379a0000000000000000000000000000000000000000000000000000000008152600401610464906119e0565b60405180910390fd5b60026000819055506000600260003373ffffffffffffffffffffffffffffffffffffffff1673ffffffffffffffffffffffffffffffffffffffff16815260200190815260200160002060000154116104fa576040517f08c379a00000000000000000000000000000000000000000000000000000000081526004016104f190611a4c565b60405180910390fd5b3373ffffffffffffffffffffffffffffffffffffffff166003600083815260200190815260200160002060009054906101000a900473ffffffffffffffffffffffffffffffffffffffff1673ffffffffffffffffffffffffffffffffffffffff161461059b576040517f08c379a000000000000000000000000000000000000000000000000000000000815260040161059290611ab8565b60405180910390fd5b60006105a633611438565b905080600260003373ffffffffffffffffffffffffffffffffffffffff1673ffffffffffffffffffffffffffffffffffffffff16815260200190815260200160002060030160008282546105fa91906118e3565b925050819055506000805b600260003373ffffffffffffffffffffffffffffffffffffffff1673ffffffffffffffffffffffffffffffffffffffff168152602001908152602001600020600101805490508110156107985783600260003373ffffffffffffffffffffffffffffffffffffffff1673ffffffffffffffffffffffffffffffffffffffff16815260200190815260200160002060010182815481106106a7576106a6611ad8565b5b9060005260206000209060020201600101541480156107785750600073ffffffffffffffffffffffffffffffffffffffff16600260003373ffffffffffffffffffffffffffffffffffffffff1673ffffffffffffffffffffffffffffffffffffffff168152602001908152602001600020600101828154811061072d5761072c611ad8565b5b906000526020600020906002020160000160009054906101000a900473ffffffffffffffffffffffffffffffffffffffff1673ffffffffffffffffffffffffffffffffffffffff1614155b1561078557809150610798565b808061079090611b07565b915050610605565b506000600260003373ffffffffffffffffffffffffffffffffffffffff1673ffffffffffffffffffffffffffffffffffffffff16815260200190815260200160002060010182815481106107ef576107ee611ad8565b5b906000526020600020906002020160000160006101000a81548173ffffffffffffffffffffffffffffffffffffffff021916908373ffffffffffffffffffffffffffffffffffffffff160217905550600260003373ffffffffffffffffffffffffffffffffffffffff1673ffffffffffffffffffffffffffffffffffffffff168152602001908152602001600020600001600081548092919061089190611b4f565b919050555060006003600085815260200190815260200160002060006101000a81548173ffffffffffffffffffffffffffffffffffffffff021916908373ffffffffffffffffffffffffffffffffffffffff1602179055507f000000000000000000000000000000000000000000000000000000000000000073ffffffffffffffffffffffffffffffffffffffff166323b872dd3033866040518463ffffffff1660e01b815260040161094693929190611b78565b600060405180830381600087803b15801561096057600080fd5b505af1158015610974573d6000803e3d6000fd5b5050505042600260003373ffffffffffffffffffffffffffffffffffffffff1673ffffffffffffffffffffffffffffffffffffffff168152602001908152602001600020600201819055505050600160008190555050565b60606000600260008473ffffffffffffffffffffffffffffffffffffffff1673ffffffffffffffffffffffffffffffffffffffff168152602001908152602001600020600001541115610cd5576000600260008473ffffffffffffffffffffffffffffffffffffffff1673ffffffffffffffffffffffffffffffffffffffff1681526020019081526020016000206000015467ffffffffffffffff811115610a7757610a76611baf565b5b604051908082528060200260200182016040528015610ab057816020015b610a9d6114f6565b815260200190600190039081610a955790505b5090506000805b600260008673ffffffffffffffffffffffffffffffffffffffff1673ffffffffffffffffffffffffffffffffffffffff16815260200190815260200160002060010180549050811015610cca57600073ffffffffffffffffffffffffffffffffffffffff16600260008773ffffffffffffffffffffffffffffffffffffffff1673ffffffffffffffffffffffffffffffffffffffff1681526020019081526020016000206001018281548110610b7057610b6f611ad8565b5b906000526020600020906002020160000160009054906101000a900473ffffffffffffffffffffffffffffffffffffffff1673ffffffffffffffffffffffffffffffffffffffff1614610cb757600260008673ffffffffffffffffffffffffffffffffffffffff1673ffffffffffffffffffffffffffffffffffffffff1681526020019081526020016000206001018181548110610c1157610c10611ad8565b5b90600052602060002090600202016040518060400160405290816000820160009054906101000a900473ffffffffffffffffffffffffffffffffffffffff1673ffffffffffffffffffffffffffffffffffffffff1673ffffffffffffffffffffffffffffffffffffffff168152602001600182015481525050838381518110610c9d57610c9c611ad8565b5b60200260200101819052508180610cb390611b07565b9250505b8080610cc290611b07565b915050610ab7565b508192505050610d2d565b600067ffffffffffffffff811115610cf057610cef611baf565b5b604051908082528060200260200182016040528015610d2957816020015b610d166114f6565b815260200190600190039081610d0e5790505b5090505b919050565b7f000000000000000000000000000000000000000000000000000000000000000081565b60026020528060005260406000206000915090508060000154908060020154908060030154905083565b60036020528060005260406000206000915054906101000a900473ffffffffffffffffffffffffffffffffffffffff1681565b600260005403610df8576040517f08c379a0000000000000000000000000000000000000000000000000000000008152600401610def906119e0565b60405180910390fd5b60026000819055506000600260003373ffffffffffffffffffffffffffffffffffffffff1673ffffffffffffffffffffffffffffffffffffffff168152602001908152602001600020600001541115610eb3576000610e5633611438565b905080600260003373ffffffffffffffffffffffffffffffffffffffff1673ffffffffffffffffffffffffffffffffffffffff1681526020019081526020016000206003016000828254610eaa91906118e3565b92505081905550505b3373ffffffffffffffffffffffffffffffffffffffff167f000000000000000000000000000000000000000000000000000000000000000073ffffffffffffffffffffffffffffffffffffffff16636352211e836040518263ffffffff1660e01b8152600401610f239190611899565b602060405180830381865afa158015610f40573d6000803e3d6000fd5b505050506040513d601f19601f82011682018060405250810190610f649190611bf3565b73ffffffffffffffffffffffffffffffffffffffff1614610fba576040517f08c379a0000000000000000000000000000000000000000000000000000000008152600401610fb190611ab8565b60405180910390fd5b7f000000000000000000000000000000000000000000000000000000000000000073ffffffffffffffffffffffffffffffffffffffff166323b872dd3330846040518463ffffffff1660e01b815260040161101793929190611b78565b600060405180830381600087803b15801561103157600080fd5b505af1158015611045573d6000803e3d6000fd5b50505050600060405180604001604052803373ffffffffffffffffffffffffffffffffffffffff168152602001838152509050600260003373ffffffffffffffffffffffffffffffffffffffff1673ffffffffffffffffffffffffffffffffffffffff16815260200190815260200160002060010181908060018154018082558091505060019003906000526020600020906002020160009091909190915060008201518160000160006101000a81548173ffffffffffffffffffffffffffffffffffffffff021916908373ffffffffffffffffffffffffffffffffffffffff160217905550602082015181600101555050600260003373ffffffffffffffffffffffffffffffffffffffff1673ffffffffffffffffffffffffffffffffffffffff168152602001908152602001600020600001600081548092919061118a90611b07565b9190505550336003600084815260200190815260200160002060006101000a81548173ffffffffffffffffffffffffffffffffffffffff021916908373ffffffffffffffffffffffffffffffffffffffff16021790555042600260003373ffffffffffffffffffffffffffffffffffffffff1673ffffffffffffffffffffffffffffffffffffffff1681526020019081526020016000206002018190555050600160008190555050565b600080600260008473ffffffffffffffffffffffffffffffffffffffff1673ffffffffffffffffffffffffffffffffffffffff1681526020019081526020016000206003015461128384611438565b61128d91906118e3565b905080915050919050565b60003373ffffffffffffffffffffffffffffffffffffffff167f000000000000000000000000000000000000000000000000000000000000000073ffffffffffffffffffffffffffffffffffffffff1663081812fc846040518263ffffffff1660e01b815260040161130a9190611899565b602060405180830381865afa158015611327573d6000803e3d6000fd5b505050506040513d601f19601f8201168201806040525081019061134b9190611bf3565b73ffffffffffffffffffffffffffffffffffffffff16148061143157503373ffffffffffffffffffffffffffffffffffffffff167f000000000000000000000000000000000000000000000000000000000000000073ffffffffffffffffffffffffffffffffffffffff16636352211e846040518263ffffffff1660e01b81526004016113d89190611899565b602060405180830381865afa1580156113f5573d6000803e3d6000fd5b505050506040513d601f19601f820116820180604052508101906114199190611bf3565b73ffffffffffffffffffffffffffffffffffffffff16145b9050919050565b6000610e10600154600260008573ffffffffffffffffffffffffffffffffffffffff1673ffffffffffffffffffffffffffffffffffffffff16815260200190815260200160002060000154600260008673ffffffffffffffffffffffffffffffffffffffff1673ffffffffffffffffffffffffffffffffffffffff16815260200190815260200160002060020154426114d19190611c20565b6114db9190611c54565b6114e59190611c54565b6114ef9190611cc5565b9050919050565b6040518060400160405280600073ffffffffffffffffffffffffffffffffffffffff168152602001600081525090565b600080fd5b6000819050919050565b61153e8161152b565b811461154957600080fd5b50565b60008135905061155b81611535565b92915050565b60006020828403121561157757611576611526565b5b60006115858482850161154c565b91505092915050565b600073ffffffffffffffffffffffffffffffffffffffff82169050919050565b6000819050919050565b60006115d36115ce6115c98461158e565b6115ae565b61158e565b9050919050565b60006115e5826115b8565b9050919050565b60006115f7826115da565b9050919050565b611607816115ec565b82525050565b600060208201905061162260008301846115fe565b92915050565b6000611633826115da565b9050919050565b61164381611628565b82525050565b600060208201905061165e600083018461163a565b92915050565b600061166f8261158e565b9050919050565b61167f81611664565b811461168a57600080fd5b50565b60008135905061169c81611676565b92915050565b6000602082840312156116b8576116b7611526565b5b60006116c68482850161168d565b91505092915050565b600081519050919050565b600082825260208201905092915050565b6000819050602082019050919050565b61170481611664565b82525050565b6117138161152b565b82525050565b60408201600082015161172f60008501826116fb565b506020820151611742602085018261170a565b50505050565b60006117548383611719565b60408301905092915050565b6000602082019050919050565b6000611778826116cf565b61178281856116da565b935061178d836116eb565b8060005b838110156117be5781516117a58882611748565b97506117b083611760565b925050600181019050611791565b5085935050505092915050565b600060208201905081810360008301526117e5818461176d565b905092915050565b60006117f8826115da565b9050919050565b611808816117ed565b82525050565b600060208201905061182360008301846117ff565b92915050565b6118328161152b565b82525050565b600060608201905061184d6000830186611829565b61185a6020830185611829565b6118676040830184611829565b949350505050565b61187881611664565b82525050565b6000602082019050611893600083018461186f565b92915050565b60006020820190506118ae6000830184611829565b92915050565b7f4e487b7100000000000000000000000000000000000000000000000000000000600052601160045260246000fd5b60006118ee8261152b565b91506118f98361152b565b9250828201905080821115611911576119106118b4565b5b92915050565b600082825260208201905092915050565b7f596f752068617665206e6f207265776172647320746f20636c61696d00000000600082015250565b600061195e601c83611917565b915061196982611928565b602082019050919050565b6000602082019050818103600083015261198d81611951565b9050919050565b7f5265656e7472616e637947756172643a207265656e7472616e742063616c6c00600082015250565b60006119ca601f83611917565b91506119d582611994565b602082019050919050565b600060208201905081810360008301526119f9816119bd565b9050919050565b7f596f752068617665206e6f20746f6b656e73207374616b656400000000000000600082015250565b6000611a36601983611917565b9150611a4182611a00565b602082019050919050565b60006020820190508181036000830152611a6581611a29565b9050919050565b7f596f7520646f6e2774206f776e207468697320746f6b656e2100000000000000600082015250565b6000611aa2601983611917565b9150611aad82611a6c565b602082019050919050565b60006020820190508181036000830152611ad181611a95565b9050919050565b7f4e487b7100000000000000000000000000000000000000000000000000000000600052603260045260246000fd5b6000611b128261152b565b91507fffffffffffffffffffffffffffffffffffffffffffffffffffffffffffffffff8203611b4457611b436118b4565b5b600182019050919050565b6000611b5a8261152b565b915060008203611b6d57611b6c6118b4565b5b600182039050919050565b6000606082019050611b8d600083018661186f565b611b9a602083018561186f565b611ba76040830184611829565b949350505050565b7f4e487b7100000000000000000000000000000000000000000000000000000000600052604160045260246000fd5b600081519050611bed81611676565b92915050565b600060208284031215611c0957611c08611526565b5b6000611c1784828501611bde565b91505092915050565b6000611c2b8261152b565b9150611c368361152b565b9250828203905081811115611c4e57611c4d6118b4565b5b92915050565b6000611c5f8261152b565b9150611c6a8361152b565b9250828202611c788161152b565b91508282048414831517611c8f57611c8e6118b4565b5b5092915050565b7f4e487b7100000000000000000000000000000000000000000000000000000000600052601260045260246000fd5b6000611cd08261152b565b9150611cdb8361152b565b925082611ceb57611cea611c96565b5b82820490509291505056fea26469706673582212209e18fb9063d07464eec01d70c6f1e154ad555d3db110a82b423f2ee2fe33aa9964736f6c63430008110033",
  "devdoc": {
    "kind": "dev",
    "methods": {},
    "version": 1
  },
  "userdoc": {
    "kind": "user",
    "methods": {},
    "version": 1
  },
  "storageLayout": {
    "storage": [
      {
        "astId": 403,
        "contract": "contracts/core/Staking.sol:Staking",
        "label": "_status",
        "offset": 0,
        "slot": "0",
        "type": "t_uint256"
      },
      {
        "astId": 4779,
        "contract": "contracts/core/Staking.sol:Staking",
        "label": "rewardsPerHour",
        "offset": 0,
        "slot": "1",
        "type": "t_uint256"
      },
      {
        "astId": 4784,
        "contract": "contracts/core/Staking.sol:Staking",
        "label": "stakers",
        "offset": 0,
        "slot": "2",
        "type": "t_mapping(t_address,t_struct(Staker)4776_storage)"
      },
      {
        "astId": 4788,
        "contract": "contracts/core/Staking.sol:Staking",
        "label": "stakerAddress",
        "offset": 0,
        "slot": "3",
        "type": "t_mapping(t_uint256,t_address)"
      }
    ],
    "types": {
      "t_address": {
        "encoding": "inplace",
        "label": "address",
        "numberOfBytes": "20"
      },
      "t_array(t_struct(StakedToken)4765_storage)dyn_storage": {
        "base": "t_struct(StakedToken)4765_storage",
        "encoding": "dynamic_array",
        "label": "struct Staking.StakedToken[]",
        "numberOfBytes": "32"
      },
      "t_mapping(t_address,t_struct(Staker)4776_storage)": {
        "encoding": "mapping",
        "key": "t_address",
        "label": "mapping(address => struct Staking.Staker)",
        "numberOfBytes": "32",
        "value": "t_struct(Staker)4776_storage"
      },
      "t_mapping(t_uint256,t_address)": {
        "encoding": "mapping",
        "key": "t_uint256",
        "label": "mapping(uint256 => address)",
        "numberOfBytes": "32",
        "value": "t_address"
      },
      "t_struct(StakedToken)4765_storage": {
        "encoding": "inplace",
        "label": "struct Staking.StakedToken",
        "members": [
          {
            "astId": 4762,
            "contract": "contracts/core/Staking.sol:Staking",
            "label": "staker",
            "offset": 0,
            "slot": "0",
            "type": "t_address"
          },
          {
            "astId": 4764,
            "contract": "contracts/core/Staking.sol:Staking",
            "label": "tokenId",
            "offset": 0,
            "slot": "1",
            "type": "t_uint256"
          }
        ],
        "numberOfBytes": "64"
      },
      "t_struct(Staker)4776_storage": {
        "encoding": "inplace",
        "label": "struct Staking.Staker",
        "members": [
          {
            "astId": 4767,
            "contract": "contracts/core/Staking.sol:Staking",
            "label": "amountStaked",
            "offset": 0,
            "slot": "0",
            "type": "t_uint256"
          },
          {
            "astId": 4771,
            "contract": "contracts/core/Staking.sol:Staking",
            "label": "stakedTokens",
            "offset": 0,
            "slot": "1",
            "type": "t_array(t_struct(StakedToken)4765_storage)dyn_storage"
          },
          {
            "astId": 4773,
            "contract": "contracts/core/Staking.sol:Staking",
            "label": "timeOfLastUpdate",
            "offset": 0,
            "slot": "2",
            "type": "t_uint256"
          },
          {
            "astId": 4775,
            "contract": "contracts/core/Staking.sol:Staking",
            "label": "unclaimedRewards",
            "offset": 0,
            "slot": "3",
            "type": "t_uint256"
          }
        ],
        "numberOfBytes": "128"
      },
      "t_uint256": {
        "encoding": "inplace",
        "label": "uint256",
        "numberOfBytes": "32"
      }
    }
  }
}